:100000000C942A000C9498090C94C5090C94F209DC
:100010000C9447000C9447000C9447000C94470044
:100020000C9447000C9447000C9447000C94470034
:100030000C9447000C9447000C9447000C94470024
:100040000C945C070C9447000C9447000C944700F8
:100050000C94470011241FBECFE5D8E0DEBFCDBF12
:1000600011E0A0E6B0E0E4EEF7E302C005900D92E7
:10007000A831B107D9F711E0A8E1B1E001C01D92A4
:10008000A132B107E1F70E9433170C94F01B0C94D6
:100090000000EF92FF920F931F937B018C0120E0F1
:1000A00030E040E05FE40E94F50388238CF0C80153
:1000B000B70120E030E040E05FE40E94C1010E940F
:1000C00055049B01AC01205030404040504806C0D0
:1000D000C801B7010E9455049B01AC01B901CA01D6
:1000E0001F910F91FF90EF900895A0E0B0E0EBE733
:1000F000F0E00C94B91BDC012B01FA019C919230C9
:1001000008F439C1EB018881823008F433C194309E
:1001100069F4843009F02FC111969C91119789815F
:10012000981709F428C1A9EAB0E025C1843009F480
:1001300021C18230A9F4923009F01DC19A01AD01AC
:1001400088E0EA010990AE01E90109929E0181501F
:10015000C1F7E201898111969C918923818308C1AD
:10016000923009F407C112962D903C901397EB0141
:100170008A819B811496AD90BD90CD90DC901797AD
:10018000EC80FD800E811F819101281B390BB90184
:1001900037FF04C066277727621B730B6032710537
:1001A0000CF061C0121613066CF537014801062EDB
:1001B00004C096948794779467940A94D2F721E0C8
:1001C00030E040E050E004C0220F331F441F551FB1
:1001D0006A95D2F721503040404050402E213F21B7
:1001E00040235123211531054105510521F021E01E
:1001F00030E040E050E079018A01E628F72808293C
:1002000019293CC0232BD1F1260E371E350146019A
:10021000062E04C096948794779467940A94D2F734
:1002200021E030E040E050E004C0220F331F441FC3
:10023000551F6A95D2F721503040404050402A2146
:100240003B214C215D21211531054105510521F04E
:1002500021E030E040E050E059016A01A628B728CB
:10026000C828D9280BC0821593052CF01C01AA249C
:10027000BB24650103C0EE24FF24870111969C91E5
:10028000D20111968C91981709F445C0992339F041
:10029000A80197012A193B094C095D0906C0A6016E
:1002A00095012E193F09400B510B57FD08C01182D3
:1002B0003382228224833583468357831DC081E0A5
:1002C00081833382228288279927DC01821B930B4A
:1002D000A40BB50B84839583A683B7830DC0220F2F
:1002E000331F441F551F24833583468357838281E0
:1002F000938101979383828324813581468157813D
:10030000DA01C9010197A109B1098F5F9F4FAF4F72
:10031000BF4328F30BC0918333822282EA0CFB1C7B
:100320000C1D1D1DE482F5820683178383E0808304
:10033000248135814681578157FF1AC0C901AA27F8
:1003400097FDA095BA2F81709070A070B0705695EF
:10035000479537952795822B932BA42BB52B848318
:100360009583A683B7838281938101969383828349
:10037000DF0101C0D201CD01CDB7DEB7E2E10C94BF
:10038000D51BA0E2B0E0E7ECF1E00C94C51B69835B
:100390007A838B839C832D833E834F835887E9E048
:1003A000EE2EF12CEC0EFD1ECE010196B7010E943F
:1003B0007E058E010F5E1F4FCE010596B8010E948B
:1003C0007E058A8991E089278A8BC701B801AE0131
:1003D000475E5F4F0E9475000E94A904A096E6E068
:1003E0000C94E11BA0E2B0E0E8EFF1E00C94C51B37
:1003F00069837A838B839C832D833E834F835887C5
:10040000F9E0EF2EF12CEC0EFD1ECE010196B701A6
:100410000E947E058E010F5E1F4FCE010596B8012A
:100420000E947E05C701B801AE01475E5F4F0E9482
:1004300075000E94A904A096E6E00C94E11BA0E2DE
:10044000B0E0E5E2F2E00C94B91B69837A838B8318
:100450009C832D833E834F835887CE010196BE0136
:10046000675F7F4F0E947E05CE010596BE016F5EDD
:100470007F4F0E947E059985923088F0898982306D
:10048000C8F0943019F4823051F404C0843029F457
:10049000923081F489EA90E0C6C0923049F420E0BD
:1004A0009A858A89981321E02A87CE010996BBC0D4
:1004B000823049F420E09A858A89981321E02A8BBA
:1004C000CE014196B0C02D843E844F8458886D88FB
:1004D0007E888F88988CEE24FF248701AA24BB2471
:1004E000650140E050E060E070E0E0E0F0E0C10174
:1004F00081709070892BE9F0E60CF71C081D191D1E
:100500009A01AB012A0D3B1D4C1D5D1D80E090E062
:10051000A0E0B0E0E614F7040805190520F481E036
:1005200090E0A0E0B0E0BA01A901480F591F6A1F8E
:100530007B1FAA0CBB1CCC1CDD1C97FE08C081E0F5
:1005400090E0A0E0B0E0A82AB92ACA2ADB2A3196B6
:10055000E032F10549F0660C771C881C991C569412
:10056000479437942794C3CFFA85EA892B893C892D
:100570008B859C85280F391F2E5F3F4F17C0CA01FE
:1005800081709070892B61F016950795F794E79428
:1005900080E090E0A0E0B0E8E82AF92A0A2B1B2BC3
:1005A00076956795579547952F5F3F4F77FDE7CF36
:1005B0000CC0440F551F661F771F17FD4160EE0CDE
:1005C000FF1C001F111F21503040403090E05907A0
:1005D00090E0690790E4790760F32B8F3C8FDB0193
:1005E000CA018F779070A070B07080349105A1051A
:1005F000B10561F447FD0AC0E114F10401051105DC
:1006000029F0405C5F4F6F4F7F4F40781A8EFE1786
:1006100011F081E08A8F4D8F5E8F6F8F78A383E01A
:10062000898FCE0149960E94A904A096E2E10C941C
:10063000D51BA8E1B0E0EFE1F3E00C94C11B6983A6
:100640007A838B839C832D833E834F835887B9E0C5
:10065000EB2EF12CEC0EFD1ECE010196B7010E948F
:100660007E058E010F5E1F4FCE010596B8010E94D8
:100670007E052985223008F47EC03989323010F495
:10068000B8017CC08A859A8989278A87243011F02D
:10069000223031F4231709F06EC069EA70E06EC0B1
:1006A000343039F41D861E861F86188A1C861B86E8
:1006B00004C0323021F484E08987B7015FC02B8504
:1006C0003C858B899C89281B390B3C872B87ED84C3
:1006D000FE840F851889AD88BE88CF88D88CEA142F
:1006E000FB040C051D0540F4EE0CFF1C001F111F40
:1006F000215030403C872B8720E030E040E050E044
:1007000080E090E0A0E0B0E460E070E0EA14FB0478
:100710000C051D0540F0282B392B4A2B5B2BEA18C2
:10072000FB080C091D09B695A79597958795EE0CC2
:10073000FF1C001F111F6F5F7F4F6F31710531F775
:10074000DA01C9018F779070A070B0708034910584
:10075000A105B10561F427FD0AC0E114F10401050A
:10076000110529F0205C3F4F4F4F5F4F20782D87B8
:100770003E874F87588BBE01675F7F4FCB010E943A
:10078000A9046896EAE00C94DD1BA8E1B0E0EBEC6C
:10079000F3E00C94C51B69837A838B839C832D8340
:1007A0003E834F83588789E0E82EF12CEC0EFD1E26
:1007B000CE010196B7010E947E058E010F5E1F4F8C
:1007C000CE010596B8010E947E058985823040F0F1
:1007D0008989823028F0C701B8010E94F60501C05E
:1007E0008FEF6896E6E00C94E11BA8E1B0E0EBEF38
:1007F000F3E00C94C51B69837A838B839C832D83E0
:100800003E834F83588789E0E82EF12CEC0EFD1EC5
:10081000CE010196B7010E947E058E010F5E1F4F2B
:10082000CE010596B8010E947E058985823040F090
:100830008989823028F0C701B8010E94F60501C0FD
:100840008FEF6896E6E00C94E11BA8E1B0E0EBE2E4
:10085000F4E00C94C51B69837A838B839C832D837E
:100860003E834F83588789E0E82EF12CEC0EFD1E65
:10087000CE010196B7010E947E058E010F5E1F4FCB
:10088000CE010596B8010E947E058985823040F030
:100890008989823028F0C701B8010E94F60501C09D
:1008A00081E06896E6E00C94E11BACE0B0E0EBE59B
:1008B000F4E00C94C91B69837A838B839C83CE01FB
:1008C0000196BE016B5F7F4F0E947E058D81823055
:1008D00061F1823050F1843021F48E81882351F10E
:1008E0002EC02F81388537FD20C06E812F31310514
:1008F0001CF06623F9F023C08EE190E0821B930B7D
:1009000029853A854B855C8504C056954795379572
:1009100027958A95D2F76623B1F05095409530958A
:1009200021953F4F4F4F5F4F0EC020E030E040E039
:1009300050E009C02FEF3FEF4FEF5FE704C020E02A
:1009400030E040E050E8B901CA012C96E2E00C9496
:10095000E51BDF92EF92FF920F931F93FC01E4805F
:10096000F58006811781D1808081823048F480E053
:1009700090E0A0E1B0E0E82AF92A0A2B1B2BA5C0E1
:10098000843009F49FC0823021F4EE24FF248701D3
:1009900005C0E114F1040105110519F4E0E0F0E0EF
:1009A00096C0628173819FEF623879070CF05BC05B
:1009B00022E83FEF261B370B2A3131052CF020E0CF
:1009C00030E040E050E02AC0B801A701022E04C088
:1009D00076956795579547950A94D2F781E090E010
:1009E000A0E0B0E004C0880F991FAA1FBB1F2A9582
:1009F000D2F70197A109B1098E219F21A023B1232C
:100A00000097A105B10521F081E090E0A0E0B0E001
:100A10009A01AB01282B392B4A2B5B2BDA01C90138
:100A20008F779070A070B07080349105A105B105EA
:100A300039F427FF09C0205C3F4F4F4F5F4F04C080
:100A4000215C3F4F4F4F5F4FE0E0F0E02030A0E0EF
:100A50003A07A0E04A07A0E45A0710F0E1E0F0E00E
:100A600079018A0127C06038710564F5FB01E158FE
:100A7000FF4FD801C7018F779070A070B07080349D
:100A80009105A105B10539F4E7FE0DC080E490E0C1
:100A9000A0E0B0E004C08FE390E0A0E0B0E0E80E9A
:100AA000F91E0A1F1B1F17FF05C016950795F7941F
:100AB000E794319687E016950795F794E7948A9521
:100AC000D1F705C0EE24FF248701EFEFF0E06E2F91
:100AD000679566276795902F9F77D794DD24D794E5
:100AE0008E2F8695492F462B582F5D29B701CA01B5
:100AF0001F910F91FF90EF90DF900895FC01DB01B3
:100B0000408151812281622F6F7770E0221F22275E
:100B1000221F9381892F880F822B282F30E0991F65
:100B20009927991F11969C93119721153105A9F5C5
:100B3000411551056105710511F482E037C082E865
:100B40009FEF13969C938E9312979A01AB0167E0E7
:100B5000220F331F441F551F6A95D1F783E08C93F2
:100B60000DC0220F331F441F551F12968D919C916B
:100B70001397019713969C938E931297203080E0E1
:100B8000380780E0480780E4580758F314962D93FF
:100B90003D934D935C93179708952F3F310579F45A
:100BA000411551056105710519F484E08C93089590
:100BB00064FF03C081E08C9312C01C9210C02F57B9
:100BC000304013963C932E93129783E08C9387E0EA
:100BD000440F551F661F771F8A95D1F770641496CE
:100BE0004D935D936D937C93179708951F93DC014C
:100BF000FB019C91923008F447C08081823008F458
:100C000043C0943051F411961C91843099F5818140
:100C1000682F70E0611B71093FC0843021F0923071
:100C200031F48230B9F18181882389F12DC0119688
:100C30001C9111978230F1F081811817D9F4129626
:100C40002D913C911397828193818217930794F0A1
:100C500028173907BCF014968D919D910D90BC9189
:100C6000A02D2481358146815781281739074A07ED
:100C70005B0718F4112341F00AC082179307A407F9
:100C8000B50740F4112319F061E070E005C06FEF83
:100C90007FEF02C060E070E0CB011F910895DF9309
:100CA000CF93CDB7DEB7A7E2B0E0E7E2F0E0808116
:100CB00080648C93A7E2B0E0E7E2F0E080818F7778
:100CC0008C93A7E2B0E0E7E2F0E0808180628C9351
:100CD000A6E2B0E0E6E2F0E080818F7D8C93A6E2B0
:100CE000B0E0E6E2F0E08081877F8C93A6E2B0E09E
:100CF000E6E2F0E08081887F8C93A6E2B0E0E6E255
:100D0000F0E0808187608C930E948906CF91DF910B
:100D10000895DF93CF93CDB7DEB7A6E2B0E0E6E269
:100D2000F0E0808180688C93CF91DF910895DF930C
:100D3000CF93CDB7DEB7A6E2B0E0E6E2F0E0808187
:100D400088608C93CF91DF910895DF93CF93CDB7D7
:100D5000DEB7A6E2B0E0E6E2F0E080818F778C9328
:100D6000CF91DF910895DF93CF93CDB7DEB7A6E2A1
:100D7000B0E0E6E2F0E0808180648C93CF91DF9177
:100D80000895DF93CF93CDB7DEB7A6E2B0E0E6E2F9
:100D9000F0E0808180628C93A0E5B0E0E0E5F0E0D7
:100DA00080818F7D8C93A0E5B0E0E0E5F0E080816C
:100DB00080648C93A0E5B0E0E0E5F0E080818F777F
:100DC0008C93CF91DF910895DF93CF930F92CDB79E
:100DD000DEB78983A7E2B0E0E7E2F0E08081807EC1
:100DE0008C93A7E2B0E0E7E2F0E090818981892B63
:100DF0008C930E94B306E6E2F0E0808182958F70CA
:100E0000882F90E0817090700097A9F3A6E2B0E07F
:100E1000E6E2F0E0808180618C93E5E2F0E08081A1
:100E2000882F90E00F90CF91DF910895DF93CF93BB
:100E30000F92CDB7DEB78983A7E2B0E0E7E2F0E03A
:100E40008081807E8C93A7E2B0E0E7E2F0E09081C1
:100E50008981892B8C93E5E2F0E08081882F90E0F6
:100E60000F90CF91DF910895DF93CF9300D00F9231
:100E7000CDB7DEB79A8389836B83A7E2B0E0E7E260
:100E8000F0E08081807E8C93A7E2B0E0E7E2F0E0C2
:100E900090818B81892B8C9389819A81009731F085
:100EA00089819A8190931A01809319010F900F9074
:100EB0000F90CF91DF9108951F920F920FB60F926E
:100EC00011242F933F934F935F936F937F938F934F
:100ED0009F93AF93BF93EF93FF93DF93CF93CDB7E0
:100EE000DEB7E0911901F0911A010995CF91DF91D8
:100EF000FF91EF91BF91AF919F918F917F916F91F2
:100F00005F914F913F912F910F900FBE0F901F90C7
:100F10001895DF93CF93CDB7DEB7AFE5B0E0EFE53F
:100F2000F0E0808180688C93CF91DF910895DF930A
:100F3000CF93CDB7DEB7AFE5B0E0EFE5F0E080816D
:100F40008F778C93CF91DF910895DF93CF93CDB7B7
:100F5000DEB7A5E5B0E0E5E5F0E080818E7F8C931B
:100F6000A5E5B0E0E5E5F0E0808182608C93ABE53B
:100F7000B0E0EBE5F0E080818F7B8C93AAE5B0E0F8
:100F8000EAE5F0E0808180648C93CF91DF91089551
:100F9000DF93CF93CDB7DEB7A5E5B0E0E5E5F0E0B0
:100FA00080818B7F8C93A5E5B0E0E5E5F0E0808162
:100FB00088608C93ABE5B0E0EBE5F0E080818F7763
:100FC0008C93AAE5B0E0EAE5F0E0808180688C933C
:100FD000CF91DF910895DF93CF93CDB7DEB7A4E52E
:100FE000B0E0E4E5F0E080818F7B8C93ABE5B0E08E
:100FF000EBE5F0E080818F7D8C93AAE5B0E0EAE537
:10100000F0E0808180628C93CF91DF910895DF932F
:10101000CF93CDB7DEB7ABE5B0E0EBE5F0E0808194
:1010200080648C93CF91DF910895DF93CF93CDB7F8
:10103000DEB7ABE5B0E0EBE5F0E080818F7B8C9331
:10104000CF91DF910895DF93CF93CDB7DEB7ABE5B6
:10105000B0E0EBE5F0E0808180688C93CF91DF9188
:101060000895DF93CF93CDB7DEB7ABE5B0E0EBE506
:10107000F0E080818F778C93CF91DF910895DF939B
:10108000CF93CDB7DEB7ABE5B0E0EBE5F0E0808124
:1010900080628C93CF91DF910895DF93CF93CDB78A
:1010A000DEB7ABE5B0E0EBE5F0E080818F7D8C93BF
:1010B000CF91DF910895DF93CF9300D0CDB7DEB706
:1010C0009A83898389819A81009731F089819A81F5
:1010D00090931A01809319010F900F90CF91DF9197
:1010E0000895DF93CF9300D0CDB7DEB79A8389837D
:1010F00089819A81009731F089819A8190931C01AE
:1011000080931B010F900F90CF91DF910895DF9393
:10111000CF9300D0CDB7DEB79A83898389819A8136
:10112000009731F089819A8190931E0180931D016F
:101130000F900F90CF91DF910895DF93CF9300D060
:101140000F92CDB7DEB789838981282F30E03B83AA
:101150002A838A819B8184309105A1F12A813B8178
:101160002530310534F48A819B818130910561F00D
:1011700046C02A813B8127303105A9F08A819B81B5
:101180008A30910571F13BC0A5E5B0E0E5E5F0E0FE
:10119000808181608C93A5E5B0E0E5E5F0E0808199
:1011A0008D7F8C932CC0A5E5B0E0E5E5F0E0808173
:1011B00081608C93A5E5B0E0E5E5F0E08081826098
:1011C0008C931DC0A5E5B0E0E5E5F0E080818E7F61
:1011D0008C93A5E5B0E0E5E5F0E0808182608C933A
:1011E0000EC0A5E5B0E0E5E5F0E080818E7F8C9350
:1011F000A5E5B0E0E5E5F0E080818D7F8C930F9070
:101200000F900F90CF91DF910895DF93CF9300D08F
:101210000F92CDB7DEB789838981282F30E03B83D9
:101220002A838A819B8184309105A1F12A813B81A7
:101230002530310534F48A819B818130910561F03C
:1012400046C02A813B8127303105A9F08A819B81E4
:101250008A30910571F13BC0A5E5B0E0E5E5F0E02D
:10126000808184608C93A5E5B0E0E5E5F0E08081C5
:10127000877F8C932CC0A5E5B0E0E5E5F0E08081A8
:1012800084608C93A5E5B0E0E5E5F0E080818860BE
:101290008C931DC0A5E5B0E0E5E5F0E080818B7F93
:1012A0008C93A5E5B0E0E5E5F0E0808188608C9363
:1012B0000EC0A5E5B0E0E5E5F0E080818B7F8C9382
:1012C000A5E5B0E0E5E5F0E08081877F8C930F90A5
:1012D0000F900F90CF91DF910895DF93CF9300D0BF
:1012E0000F92CDB7DEB789838981282F30E03B8309
:1012F0002A838A819B818430910569F02A813B8110
:101300002730310579F4A4E5B0E0E4E5F0E0808130
:1013100080648C9307C0A4E5B0E0E4E5F0E0808150
:101320008F7B8C930F900F900F90CF91DF9108954A
:101330001F920F920FB60F9211242F933F934F934A
:101340005F936F937F938F939F93AF93BF93EF932D
:10135000FF93DF93CF93CDB7DEB7E0911901F09102
:101360001A010995CF91DF91FF91EF91BF91AF9154
:101370009F918F917F916F915F914F913F912F91AD
:101380000F900FBE0F901F9018951F920F920FB6DF
:101390000F9211242F933F934F935F936F937F93FB
:1013A0008F939F93AF93BF93EF93FF93DF93CF936D
:1013B000CDB7DEB7E0911B01F0911C010995CF91EB
:1013C000DF91FF91EF91BF91AF919F918F917F91AD
:1013D0006F915F914F913F912F910F900FBE0F90A2
:1013E0001F9018951F920F920FB60F9211242F93F2
:1013F0003F934F935F936F937F938F939F93AF939D
:10140000BF93EF93FF93DF93CF93CDB7DEB7E09118
:101410001D01F0911E010995CF91DF91FF91EF9190
:10142000BF91AF919F918F917F916F915F914F91FC
:101430003F912F910F900FBE0F901F901895DF9343
:10144000CF93CDB7DEB783E090E067E070E040E097
:1014500050E00E94810A83E090E066E070E040E0A6
:1014600050E00E94810A83E090E065E070E040E097
:1014700050E00E94810ACF91DF910895DF93CF93CE
:1014800000D000D0CDB7DEB78A8319828A81282F99
:1014900030E03C832B838B819C8181309105A1F0CE
:1014A0002B813C8122303105D1F08B819C810097CA
:1014B00001F583E067E00E94140D882319F481E0B0
:1014C000898317C0198215C083E066E00E94140D5D
:1014D000882319F481E089830CC019820AC083E053
:1014E00065E00E94140D882319F481E0898301C00E
:1014F000198289810F900F900F900F90CF91DF91FB
:101500000895DF93CF9300D000D00F92CDB7DEB710
:1015100089836A834B838981282F30E03D832C8324
:101520008C819D818130910509F443C02C813D81DE
:10153000223031052CF48C819D81009771F0BCC064
:101540002C813D812230310509F45FC08C819D8161
:101550008330910509F485C0AFC08B818130A1F43F
:10156000AAE3B0E0EAE3F0E08081482F8A81282FE7
:1015700030E081E090E0022E02C0880F991F0A94AB
:10158000E2F7842B8C9398C0AAE3B0E0EAE3F0E0A2
:101590008081482F8A81282F30E081E090E0022E60
:1015A00002C0880F991F0A94E2F7809584238C93D8
:1015B00083C08B818130A1F4A7E3B0E0E7E3F0E0E2
:1015C0008081482F8A81282F30E081E090E0022E30
:1015D00002C0880F991F0A94E2F7842B8C936CC089
:1015E000A7E3B0E0E7E3F0E08081482F8A81282F6D
:1015F00030E081E090E0022E02C0880F991F0A942B
:10160000E2F7809584238C9357C08B818130A1F4BD
:10161000A4E3B0E0E4E3F0E08081482F8A81282F42
:1016200030E081E090E0022E02C0880F991F0A94FA
:10163000E2F7842B8C9340C0A4E3B0E0E4E3F0E055
:101640008081482F8A81282F30E081E090E0022EAF
:1016500002C0880F991F0A94E2F7809584238C9327
:101660002BC08B818130A1F4A1E3B0E0E1E3F0E095
:101670008081482F8A81282F30E081E090E0022E7F
:1016800002C0880F991F0A94E2F7842B8C9314C030
:10169000A1E3B0E0E1E3F0E08081482F8A81282FC8
:1016A00030E081E090E0022E02C0880F991F0A947A
:1016B000E2F7809584238C930F900F900F900F90FA
:1016C0000F90CF91DF910895DF93CF9300D000D09A
:1016D0000F92CDB7DEB789836A834B838981282F28
:1016E00030E03D832C838C819D818130910509F40C
:1016F00043C02C813D81223031052CF48C819D81A9
:10170000009771F0BCC02C813D812230310509F475
:101710005FC08C819D818330910509F485C0AFC085
:101720008B818823A9F4ABE3B0E0EBE3F0E08081A8
:10173000482F8A81282F30E081E090E0022E02C0FD
:10174000880F991F0A94E2F7809584238C9397C0A1
:10175000ABE3B0E0EBE3F0E08081482F8A81282FF3
:1017600030E081E090E0022E02C0880F991F0A94B9
:10177000E2F7842B8C9383C08B818823A9F4A8E3A0
:10178000B0E0E8E3F0E08081482F8A81282F30E044
:1017900081E090E0022E02C0880F991F0A94E2F7C0
:1017A000809584238C936BC0A8E3B0E0E8E3F0E07D
:1017B0008081482F8A81282F30E081E090E0022E3E
:1017C00002C0880F991F0A94E2F7842B8C9357C0AC
:1017D0008B818823A9F4A5E3B0E0E5E3F0E0808104
:1017E000482F8A81282F30E081E090E0022E02C04D
:1017F000880F991F0A94E2F7809584238C933FC049
:10180000A5E3B0E0E5E3F0E08081482F8A81282F4E
:1018100030E081E090E0022E02C0880F991F0A9408
:10182000E2F7842B8C932BC08B818823A9F4A2E34D
:10183000B0E0E2E3F0E08081482F8A81282F30E099
:1018400081E090E0022E02C0880F991F0A94E2F70F
:10185000809584238C9313C0A2E3B0E0E2E3F0E030
:101860008081482F8A81282F30E081E090E0022E8D
:1018700002C0880F991F0A94E2F7842B8C930F9073
:101880000F900F900F900F90CF91DF910895DF93FD
:10189000CF9300D000D0CDB7DEB789836A8389812A
:1018A000282F30E03C832B838B819C8181309105F4
:1018B000D1F02B813C81223031052CF48B819C812D
:1018C000009761F01EC02B813C812230310581F0F0
:1018D0008B819C818330910581F013C0EBE3F0E0B4
:1018E0008A8180830EC0E8E3F0E08A81808309C0AA
:1018F000E5E3F0E08A81808304C0E2E3F0E08A81DE
:1019000080830F900F900F900F90CF91DF910895EB
:10191000DF93CF9300D00F92CDB7DEB789836A8370
:101920004B830F900F900F90CF91DF910895DF932D
:10193000CF9300D000D0CDB7DEB789836A83898189
:10194000282F30E03C832B838B819C818130910553
:1019500049F12B813C81223031052CF48B819C8113
:10196000009761F05AC02B813C812230310571F122
:101970008B819C8183309105E9F14FC0ABE3B0E0EE
:10198000EBE3F0E08081482F8A81282F30E081E06E
:1019900090E0022E02C0880F991F0A94E2F7842774
:1019A0008C933BC0A8E3B0E0E8E3F0E08081482FEF
:1019B0008A81282F30E081E090E0022E02C0880F5B
:1019C000991F0A94E2F784278C9327C0A5E3B0E01F
:1019D000E5E3F0E08081482F8A81282F30E081E024
:1019E00090E0022E02C0880F991F0A94E2F7842724
:1019F0008C9313C0A2E3B0E0E2E3F0E08081482FD3
:101A00008A81282F30E081E090E0022E02C0880F0A
:101A1000991F0A94E2F784278C930F900F900F90F0
:101A20000F90CF91DF910895DF93CF9300D000D036
:101A30000F92CDB7DEB78A836B8319828A81282FF4
:101A400030E03D832C834C815D814130510541F173
:101A50008C819D818230910534F42C813D8121154A
:101A6000310561F052C04C815D814230510551F128
:101A70008C819D8183309105B9F147C0E9E3F0E0A5
:101A80008081282F30E08B81882F90E0A90102C04F
:101A9000559547958A95E2F7CA018170898335C0CB
:101AA000E6E3F0E08081282F30E08B81882F90E002
:101AB000A90102C0559547958A95E2F7CA01817040
:101AC000898323C0E3E3F0E08081282F30E08B811D
:101AD000882F90E0A90102C0559547958A95E2F7B5
:101AE000CA018170898311C0E0E3F0E08081282F72
:101AF00030E08B81882F90E0A90102C05595479571
:101B00008A95E2F7CA018170898389810F900F90CD
:101B10000F900F900F90CF91DF910895DF93CF93A7
:101B200000D0CDB7DEB789836A830F900F90CF9135
:101B3000DF910895DF93CF93CDB7DEB783E090E0D8
:101B400060E070E040E050E00E94810A83E090E0B5
:101B500061E070E040E050E00E94810A83E090E0A4
:101B600062E070E040E050E00E94810A83E090E093
:101B700063E070E040E050E00E94810A83E090E082
:101B800064E070E041E050E00E94810A83E090E070
:101B900065E070E041E050E00E94810A83E090E05F
:101BA00066E070E041E050E00E94810A83E090E04E
:101BB00067E070E041E050E00E94810A83E064E069
:101BC00041E00E94640B83E065E041E00E94640B09
:101BD00083E066E041E00E94640B83E067E041E05F
:101BE0000E94640B83E060E041E00E94640B83E0AC
:101BF00061E041E00E94640B83E062E041E00E940A
:101C0000640B83E063E041E00E94640BCF91DF91BD
:101C10000895DF93CF930F92CDB7DEB783E064E0F2
:101C20000E94140D882391F083E065E00E94140D5A
:101C3000882361F083E066E00E94140D882331F070
:101C400083E067E00E94140D882319F481E0898302
:101C500001C0198289810F90CF91DF910895DF93A0
:101C6000CF930F92CDB7DEB7198283E064E00E9474
:101C7000140D882319F481E089831AC083E065E09C
:101C80000E94140D882319F482E0898311C083E037
:101C900066E00E94140D882319F483E0898308C04C
:101CA00083E067E00E94140D882311F484E08983A7
:101CB00089810F90CF91DF910895DF93CF9300D06A
:101CC000CDB7DEB78A83198283E060E040E00E94EE
:101CD000640B83E061E041E00E94640B83E062E01A
:101CE00041E00E94640B83E063E041E00E94640BEA
:101CF0000E942F0E982F8A81981759F402C00E94D3
:101D00002F0E0E942F0E982F8A819817C1F381E021
:101D1000898383E060E041E00E94640B83E061E03E
:101D200040E00E94640B83E062E041E00E94640BAB
:101D300083E063E041E00E94640B0E942F0E982F25
:101D40008A81981759F402C00E942F0E0E942F0E0C
:101D5000982F8A819817C1F382E0898383E060E03D
:101D600041E00E94640B83E061E041E00E94640B6B
:101D700083E062E040E00E94640B83E063E041E0C6
:101D80000E94640B0E942F0E982F8A81981759F495
:101D900002C00E942F0E0E942F0E982F8A81981742
:101DA000C1F383E0898383E060E041E00E94640B3B
:101DB00083E061E041E00E94640B83E062E041E087
:101DC0000E94640B83E063E040E00E94640B0E9489
:101DD0002F0E982F8A81981759F402C00E942F0E57
:101DE0000E942F0E982F8A819817C1F384E089836F
:101DF00089810F900F90CF91DF910895DF93CF935A
:101E0000CDB7DEB761970FB6F894DEBF0FBECDBF7A
:101E1000188A1F860E94090E813009F094C00E9422
:101E20002F0E8F878F850E945D0E888B80E090E05B
:101E3000AAE7B3E48B879C87AD87BE876B857C85DB
:101E40008D859E8520E030E04AE755E40E941F0220
:101E5000DC01CB018F839887A987BA876F8178854A
:101E600089859A8520E030E040E85FE30E94250400
:101E700088232CF481E090E09E838D833FC06F81A6
:101E8000788589859A8520E03FEF4FE757E40E94E7
:101E9000C50318164CF56B857C858D859E8520E0E5
:101EA00030E040E251E40E941F02DC01CB01BC01A2
:101EB000CD010E944900DC01CB019E838D830FC0C0
:101EC00080E991E09C838B838B819C810197F1F762
:101ED0009C838B838D819E8101979E838D838D81D1
:101EE0009E81009769F714C06F81788589859A85EE
:101EF0000E944900DC01CB019E838D838D819E81F0
:101F00009A83898389819A810197F1F79A838983DA
:101F10000E949A0D8889882F90E0AC014150504072
:101F20008F85882F90E09C0121503040CA01880F96
:101F3000991F880F991F820F931FFC01EF54FF4FC9
:101F40008081898B02C08FEF898B898961960FB65A
:101F5000F894DEBF0FBECDBFCF91DF910895DF9320
:101F6000CF93CDB7DEB7E0970FB6F894DEBF0FBEC4
:101F7000CDBF8FEF8A8BCE0143969DA78CA7E7E05C
:101F8000F1E0FFA7EEA7F0E1F8ABEEA5FFA500801A
:101F90008EA59FA501969FA78EA7ECA5FDA5008203
:101FA0008CA59DA501969DA78CA798A9915098AB4B
:101FB000E8A9EE2351F71BA281E08CA382E08DA358
:101FC00083E08EA384E08FA385E088A786E089A7BD
:101FD00087E08AA7198AD5C08989282F30E0CE01E9
:101FE0008796FC01E20FF31F908183E0692F40E0A8
:101FF0000E94640B188AB0C08889282F30E0CE0177
:102000008396FC01E20FF31F908183E0692F0E9409
:10201000140D8F878F85882309F09BC08889282F0E
:1020200030E08989482F50E0220F331F220F331FE1
:10203000CE010196820F931F840F951FFC017296AB
:1020400080818A8B0EC08889282F30E0CE0183964C
:10205000FC01E20FF31F908183E0692F0E94140DB1
:102060008F878F85882379F380E090E0A8ECB2E435
:102070008B879C87AD87BE876B857C858D859E858C
:1020800020E030E04AE755E40E941F02DC01CB016A
:102090008F839887A987BA876F81788589859A8584
:1020A00020E030E040E85FE30E94250488232CF420
:1020B00081E090E09E838D833FC06F817885898524
:1020C0009A8520E03FEF4FE757E40E94C5031816BA
:1020D0004CF56B857C858D859E8520E030E040E267
:1020E00051E40E941F02DC01CB01BC01CD010E9422
:1020F0004900DC01CB019E838D830FC080E991E014
:102100009C838B838B819C810197F1F79C838B83CC
:102110008D819E8101979E838D838D819E81009705
:1021200069F714C06F81788589859A850E94490076
:10213000DC01CB019E838D838D819E819A8389836F
:1021400089819A810197F1F79A838983FA89FBA79C
:102150001EC088898F5F888B8889843008F44CCFB3
:102160008989282F30E0CE018796FC01E20FF31F0A
:10217000908183E0692F41E00E94640B89898F5F21
:10218000898B8989843008F427CF8A898BA78BA50E
:10219000E0960FB6F894DEBF0FBECDBFCF91DF91B2
:1021A0000895DF93CF93CDB7DEB7A6970FB6F89417
:1021B000DEBF0FBECDBF80E062E041E00E94640B55
:1021C00080E090E0A0E8BFE38BA39CA3ADA3BEA3F7
:1021D0006BA17CA18DA19EA12BEA3AEA4AEA50E4C8
:1021E0000E941F02DC01CB018F8F98A3A9A3BAA381
:1021F0006F8D78A189A19AA120E030E040E85FE3EB
:102200000E94250488231CF481E08E8F91C06F8D7D
:1022100078A189A19AA120E030E04FE753E40E9421
:10222000C50318160CF07BC06BA17CA18DA19EA1EB
:1022300020E030E04AE754E40E941903DC01CB01BE
:102240008A8F9B8FAC8FBD8F6A8D7B8D8C8D9D8D82
:1022500020E030E04AE755E40E941F02DC01CB0198
:102260008E8B9F8BA88FB98F6E897F89888D998D72
:1022700020E030E040E85FE30E94250488232CF44E
:1022800081E090E09D8B8C8B3FC06E897F89888D2B
:10229000998D20E03FEF4FE757E40E94C5031816E1
:1022A0004CF56A8D7B8D8C8D9D8D20E030E040E279
:1022B00051E40E941F02DC01CB01BC01CD010E9450
:1022C0004900DC01CB019D8B8C8B0FC080E991E034
:1022D0009B8B8A8B8A899B890197F1F79B8B8A8BD1
:1022E0008C899D8901979D8B8C8B8C899D8900970A
:1022F00069F724C06E897F89888D998D0E94490075
:10230000DC01CB019D8B8C8B8C899D89998B888B73
:10231000888999890197F1F7998B888B0FC06F8D08
:1023200078A189A19AA10E944900DC01CB018E8F7E
:102330008E8D8F878F858A95F1F78F8780E062E099
:1023400040E00E94640B80E090E0A0E0B0E48B8766
:102350009C87AD87BE876B857C858D859E8520E0BB
:1023600030E04AE755E40E941F02DC01CB018F8375
:102370009887A987BA876F81788589859A8520E0B3
:1023800030E040E85FE30E94250488232CF481E0DC
:1023900090E09E838D833FC06F81788589859A8583
:1023A00020E03FEF4FE757E40E94C50318164CF5B5
:1023B0006B857C858D859E8520E030E040E251E490
:1023C0000E941F02DC01CB01BC01CD010E9449002B
:1023D000DC01CB019E838D830FC080E991E09C835B
:1023E0008B838B819C810197F1F79C838B838D81FB
:1023F0009E8101979E838D838D819E81009769F7D1
:1024000014C06F81788589859A850E944900DC0116
:10241000CB019E838D838D819E819A83898389815F
:102420009A810197F1F79A838983A6960FB6F8945B
:10243000DEBF0FBECDBFCF91DF910895DF93CF9365
:10244000CDB7DEB7E4970FB6F894DEBF0FBECDBFB1
:1024500080E090E063E070E041E050E00E94810A9B
:1024600080E090E062E070E041E050E00E94810A8C
:1024700081E090E060E070E041E050E00E94810A7D
:1024800081E090E061E070E041E050E00E94810A6C
:1024900081E090E062E070E041E050E00E94810A5B
:1024A00082E090E066E070E041E050E00E94810A46
:1024B00080E090E0A0E7B1E489AB9AABABABBCABFA
:1024C00069A97AA98BA99CA920E030E04AE755E4E4
:1024D0000E941F02DC01CB018DA79EA7AFA7B8AB5E
:1024E0006DA57EA58FA598A920E030E040E85FE3C8
:1024F0000E94250488232CF481E090E09CA78BA700
:102500003FC06DA57EA58FA598A920E03FEF4FE7BE
:1025100057E40E94C50318164CF569A97AA98BA93E
:102520009CA920E030E040E251E40E941F02DC015F
:10253000CB01BC01CD010E944900DC01CB019CA76D
:102540008BA70FC080E991E09AA789A789A59AA5D2
:102550000197F1F79AA789A78BA59CA501979CA73E
:102560008BA78BA59CA5009769F714C06DA57EA5C8
:102570008FA598A90E944900DC01CB019CA78BA7DD
:102580008BA59CA598A78FA38FA198A50197F1F77C
:1025900098A78FA383E00E94151480E090E0A0EA42
:1025A000B0E48BA39CA3ADA3BEA36BA17CA18DA122
:1025B0009EA120E030E04AE755E40E941F02DC01C2
:1025C000CB018F8F98A3A9A3BAA36F8D78A189A1FE
:1025D0009AA120E030E040E85FE30E9425048823D0
:1025E0002CF481E090E09E8F8D8F3FC06F8D78A19D
:1025F00089A19AA120E03FEF4FE757E40E94C5036D
:1026000018164CF56BA17CA18DA19EA120E030E0B5
:1026100040E251E40E941F02DC01CB01BC01CD016C
:102620000E944900DC01CB019E8F8D8F0FC080E995
:1026300091E09C8F8B8F8B8D9C8D0197F1F79C8FF8
:102640008B8F8D8D9E8D01979E8F8D8F8D8D9E8D05
:10265000009769F714C06F8D78A189A19AA10E9493
:102660004900DC01CB019E8F8D8F8D8D9E8D9A8FC1
:10267000898F898D9A8D0197F1F79A8F898F83E0E1
:102680000E94151480E090E0A8ECB2E48D8B9E8B44
:10269000AF8BB88F6D897E898F89988D2BEA3AEA46
:1026A0004AEA50E40E941F02DC01CB01898B9A8B1D
:1026B000AB8BBC8B69897A898B899C8920E030E05F
:1026C00040E85FE30E94250488231CF481E0888BA6
:1026D00091C069897A898B899C8920E030E04FE735
:1026E00053E40E94C50318160CF07BC06D897E89E7
:1026F0008F89988D20E030E04AE754E40E94190366
:10270000DC01CB018C879D87AE87BF876C857D857B
:102710008E859F8520E030E04AE755E40E941F0245
:10272000DC01CB0188879987AA87BB876885798573
:102730008A859B8520E030E040E85FE30E94250425
:1027400088232CF481E090E09F838E833FC06885CE
:1027500079858A859B8520E03FEF4FE757E40E940B
:10276000C50318164CF56C857D858E859F8520E008
:1027700030E040E251E40E941F02DC01CB01BC01C9
:10278000CD010E944900DC01CB019F838E830FC0E5
:1027900080E991E09D838C838C819D810197F1F785
:1027A0009D838C838E819F8101979F838E838E81F1
:1027B0009F81009769F724C0688579858A859B8504
:1027C0000E944900DC01CB019F838E838E819F8113
:1027D0009B838A838A819B810197F1F79B838A83FC
:1027E0000FC069897A898B899C890E944900DC0124
:1027F000CB01888B8889898389818A95F1F78983C0
:1028000083E00E94151482E00E94151488E20E9461
:10281000151481E00E941514E4960FB6F894DEBFFB
:102820000FBECDBFCF91DF910895DF93CF930F926D
:10283000CDB7DEB7898380E063E040E00E94640B9F
:10284000898182958F70982F917081E060E0492F87
:102850000E94640B8981829586958770982F91706C
:1028600081E061E0492F0E94640B89818295869501
:1028700086958370982F917081E062E0492F0E94C5
:10288000640B8981982F991F9927991F81E066E031
:10289000492F0E94640B0E94D1108981982F91705A
:1028A00081E060E0492F0E94640B89818695982F12
:1028B000917081E061E0492F0E94640B89818695C7
:1028C0008695982F917081E062E0492F0E94640BF9
:1028D0008981869586958695982F917081E066E02E
:1028E000492F0E94640B0E94D1100F90CF91DF916D
:1028F0000895DF93CF930F92CDB7DEB7898380E041
:1029000063E041E00E94640B898182958F70982F6B
:10291000917081E060E0492F0E94640B898182956B
:1029200086958770982F917081E061E0492F0E9411
:10293000640B89818295869586958370982F917016
:1029400081E062E0492F0E94640B8981982F991FD2
:102950009927991F81E066E0492F0E94640B0E942D
:10296000D1108981982F917081E060E0492F0E94F9
:10297000640B89818695982F917081E061E0492FE1
:102980000E94640B898186958695982F917081E0CD
:1029900062E0492F0E94640B898186958695869511
:1029A000982F917081E066E0492F0E94640B0E948D
:1029B000D1100F90CF91DF910895DF93CF9300D086
:1029C00000D0CDB7DEB789836A838981282F30E0B4
:1029D0003C832B838B819C81009731F02B813C8140
:1029E0002130310531F009C08A8180580E941514C8
:1029F00004C08A8180540E9415140F900F900F908C
:102A00000F90CF91DF910895DF93CF9300D00F9275
:102A1000CDB7DEB78A836B838A81882319F48B81D3
:102A2000898306C08A81813019F48B81805C898317
:102A300089818068898389810E9415140F900F9085
:102A40000F90CF91DF910895DF93CF930F92CDB781
:102A5000DEB7898389810E9479140F90CF91DF912D
:102A60000895DF93CF9300D0CDB7DEB79A838983E3
:102A70000AC0E981FA8180810E94241589819A81A6
:102A800001969A838983E981FA818081882389F775
:102A90000F900F90CF91DF9108950F931F93DF93C5
:102AA000CF93CDB7DEB7C956D0400FB6F894DEBF8E
:102AB0000FBECDBFFE01EA59FF4F60837183828351
:102AC0009383198237C08981082F10E0FE01EA59EB
:102AD000FF4F80819181A281B3812AE030E040E004
:102AE00050E0BC01CD010E94971BDC01CB01282FD7
:102AF000CE010296FC01E00FF11F20838E010A59DE
:102B00001F4FFE01EA59FF4F80819181A281B3815D
:102B10002AE030E040E050E0BC01CD010E94971B6C
:102B2000DA01C901F80180839183A283B38389818B
:102B30008F5F8983FE01EA59FF4F80819181A281D5
:102B4000B3810097A105B10509F0BDCF12C08981FD
:102B5000882F90E09C0121503040CE010296FC016C
:102B6000E20FF31F8081805D0E947914898181507A
:102B700089838981882359F7C759DF4F0FB6F894A5
:102B8000DEBF0FBECDBFCF91DF911F910F91089592
:102B9000DF93CF9300D0CDB7DEB71A8219821982A6
:102BA0002CC08981882F90E00896880F991F880F84
:102BB000991F880F991F0E9415141A8218C08981C5
:102BC000482F50E08A81282F30E0CA01880F991FD2
:102BD000880F991F880F991F820F931FFC01EF53D5
:102BE000FF4F80810E9424158A818F5F8A838A81AA
:102BF000883028F389818F5F89838981883088F2C2
:102C00000F900F90CF91DF910895DF93CF93CDB7C1
:102C1000DEB727970FB6F894DEBF0FBECDBF9C83FB
:102C20008B836D834E832F838D81882F90E0880F57
:102C3000991F880F991F880F991F8A838A81806442
:102C40008A838A810E94151419820EC08981282FD7
:102C500030E08B819C81FC01E20FF31F80810E9498
:102C6000791489818F5F89838981883078F38E8197
:102C70006F810E9404158D810E94791427960FB6EA
:102C8000F894DEBF0FBECDBFCF91DF910895DF93E3
:102C9000CF93CDB7DEB781E090E067E070E041E030
:102CA00050E00E94810A80E090E064E070E041E042
:102CB00050E00E94810A80E090E065E070E041E031
:102CC00050E00E94810A80E090E066E070E041E020
:102CD00050E00E94810ACF91DF910895DF93CF9356
:102CE00000D00F92CDB7DEB789838981282F30E0DD
:102CF0003B832A838A819B8181309105D9F02A8187
:102D00003B81223031052CF48A819B81009761F050
:102D100022C02A813B812230310591F08A819B813A
:102D20008330910599F017C081E067E041E00E948F
:102D3000640B11C080E064E041E00E94640B0BC0B2
:102D400080E065E041E00E94640B05C080E066E041
:102D500041E00E94640B0F900F900F90CF91DF9194
:102D60000895DF93CF9300D00F92CDB7DEB789835C
:102D70008981282F30E03B832A838A819B8181309F
:102D80009105D9F02A813B81223031052CF48A81CA
:102D90009B81009761F022C02A813B81223031055E
:102DA00091F08A819B818330910599F017C081E071
:102DB00067E040E00E94640B11C080E064E040E006
:102DC0000E94640B0BC080E065E040E00E94640B51
:102DD00005C080E066E040E00E94640B0F900F9019
:102DE0000F90CF91DF910895DF93CF9300D00F9292
:102DF000CDB7DEB789838981282F30E03B832A83D2
:102E00008A819B8181309105D1F02A813B812230DA
:102E100031052CF48A819B81009761F01EC02A81C4
:102E20003B812230310581F08A819B81833091057D
:102E300081F013C081E067E00E94970C0EC080E033
:102E400064E00E94970C09C080E065E00E94970C46
:102E500004C080E066E00E94970C0F900F900F90E6
:102E6000CF91DF910895DF93CF9300D0CDB7DEB738
:102E70000E9447160E941F0A0E941E120E949A0D6D
:102E800080E090E060E070E040E050E00E94810A65
:102E90008FE60E942415FFCFDF93CF93CDB7DEB727
:102EA0002E970FB6F894DEBF0FBECDBF81E00E9413
:102EB0001514E5E2F0E08081882F90E090932001E6
:102EC00080931F0180911F0190912001CC01A0E00F
:102ED000B0E0BC01CD010E944D1580E090E0AAEF6A
:102EE000B3E48B879C87AD87BE876B857C858D859A
:102EF0009E8520E030E04AE755E40E941F02DC0195
:102F0000CB018F839887A987BA876F817885898558
:102F10009A8520E030E040E85FE30E9425048823A2
:102F20002CF481E090E09E838D833FC06F81788593
:102F300089859A8520E03FEF4FE757E40E94C5035B
:102F400018164CF56B857C858D859E8520E030E0DC
:102F500040E251E40E941F02DC01CB01BC01CD0123
:102F60000E944900DC01CB019E838D830FC080E964
:102F700091E09C838B838B819C810197F1F79C83EB
:102F80008B838D819E8101979E838D838D819E8110
:102F9000009769F714C06F81788589859A850E94AA
:102FA0004900DC01CB019E838D838D819E819A83B4
:102FB000898389819A810197F1F79A8389832E9673
:102FC0000FB6F894DEBF0FBECDBFCF91DF9108954D
:102FD000DF93CF93CDB7DEB7CF91DF910895DF9325
:102FE000CF93CDB7DEB72F970FB6F894DEBF0FBEE5
:102FF000CDBF8F878F850E94F41680E090E0AAEF06
:10300000B3E48B879C87AD87BE876B857C858D8578
:103010009E8520E030E04AE755E40E941F02DC0173
:10302000CB018F839887A987BA876F817885898537
:103030009A8520E030E040E85FE30E942504882381
:103040002CF481E090E09E838D833FC06F81788572
:1030500089859A8520E03FEF4FE757E40E94C5033A
:1030600018164CF56B857C858D859E8520E030E0BB
:1030700040E251E40E941F02DC01CB01BC01CD0102
:103080000E944900DC01CB019E838D830FC080E943
:1030900091E09C838B838B819C810197F1F79C83CA
:1030A0008B838D819E8101979E838D838D819E81EF
:1030B000009769F714C06F81788589859A850E9489
:1030C0004900DC01CB019E838D838D819E819A8393
:1030D000898389819A810197F1F79A8389832F9651
:1030E0000FB6F894DEBF0FBECDBFCF91DF9108952C
:1030F000DF93CF93CDB7DEB7AA970FB6F894DEBFB4
:103100000FBECDBF80E00E94F41680E090E0AAEFF1
:10311000B3E48FA398A7A9A7BAA76FA178A589A59B
:103120009AA520E030E04AE755E40E941F02DC0146
:10313000CB018BA39CA3ADA3BEA36BA17CA18DA14E
:103140009EA120E030E040E85FE30E942504882350
:103150002CF481E090E09AA389A33FC06BA17CA1ED
:103160008DA19EA120E03FEF4FE757E40E94C503E9
:1031700018164CF56FA178A589A59AA520E030E036
:1031800040E251E40E941F02DC01CB01BC01CD01F1
:103190000E944900DC01CB019AA389A30FC080E9FA
:1031A00091E098A38F8F8F8D98A10197F1F798A345
:1031B0008F8F89A19AA101979AA389A389A19AA126
:1031C000009769F714C06BA17CA18DA19EA10E94FC
:1031D0004900DC01CB019AA389A389A19AA19E8F02
:1031E0008D8F8D8D9E8D0197F1F79E8F8D8F81E054
:1031F0000E94F41680E090E0AAEFB3E4898F9A8FE2
:10320000AB8FBC8F698D7A8D8B8D9C8D20E030E0EB
:103210004AE755E40E941F02DC01CB018D8B9E8B97
:10322000AF8BB88F6D897E898F89988D20E030E0D3
:1032300040E85FE30E94250488232CF481E090E0BD
:103240009C8B8B8B3FC06D897E898F89988D20E008
:103250003FEF4FE757E40E94C50318164CF5698D00
:103260007A8D8B8D9C8D20E030E040E251E40E940D
:103270001F02DC01CB01BC01CD010E944900DC0131
:10328000CB019C8B8B8B0FC080E991E09A8B898B53
:1032900089899A890197F1F79A8B898B8B899C8907
:1032A00001979C8B8B8B8B899C89009769F714C045
:1032B0006D897E898F89988D0E944900DC01CB0140
:1032C0009C8B8B8B8B899C89988B8F878F8598891A
:1032D0000197F1F7988B8F8782E00E94F41680E0C7
:1032E00090E0AAEFB3E48B879C87AD87BE876B85A0
:1032F0007C858D859E8520E030E04AE755E40E947C
:103300001F02DC01CB018F839887A987BA876F8161
:10331000788589859A8520E030E040E85FE30E9467
:10332000250488232CF481E090E09E838D833FC0A8
:103330006F81788589859A8520E03FEF4FE757E4D4
:103340000E94C50318164CF56B857C858D859E857E
:1033500020E030E040E251E40E941F02DC01CB019A
:10336000BC01CD010E944900DC01CB019E838D830D
:103370000FC080E991E09C838B838B819C810197B6
:10338000F1F79C838B838D819E8101979E838D8332
:103390008D819E81009769F714C06F81788589853A
:1033A0009A850E944900DC01CB019E838D838D812B
:1033B0009E819A83898389819A810197F1F79A8303
:1033C0008983AA960FB6F894DEBF0FBECDBFCF910A
:1033D000DF910895DF93CF93CDB7DEB783E067E049
:1033E00041E00E94640B80E00E943E0A882321F0A5
:1033F00080E00E946E16F7CF80E00E94B116F3CFF6
:10340000DF93CF93CDB7DEB76F970FB6F894DEBFDB
:103410000FBECDBF1F8E80E690E00E94311581E087
:1034200060E00E9404151D8E13C00E94AF0F8E8FA6
:103430008E8D8F3FD1F38E8D8F3F39F08E8D0E9410
:10344000351B8F8F8E8D0E9424158D8D8F5F8D8FF4
:103450008D8D863050F38F8D882309F47FC081E0F5
:103460000E94151480E790E00E94311580E090E4FE
:10347000ACE1B5E4898F9A8FAB8FBC8F698D7A8D63
:103480008B8D9C8D20E030E04AE755E40E941F02BE
:10349000DC01CB018D8B9E8BAF8BB88F6D897E89C4
:1034A0008F89988D20E030E040E85FE30E9425049A
:1034B00088232CF481E090E09C8B8B8B3FC06D893E
:1034C0007E898F89988D20E03FEF4FE757E40E9477
:1034D000C50318164CF5698D7A8D8B8D9C8D20E077
:1034E00030E040E251E40E941F02DC01CB01BC014C
:1034F000CD010E944900DC01CB019C8B8B8B0FC05E
:1035000080E991E09A8B898B89899A890197F1F7F3
:103510009A8B898B8B899C8901979C8B8B8B8B8950
:103520009C89009769F714C06D897E898F89988D71
:103530000E944900DC01CB019C8B8B8B8B899C8981
:10354000988B8F878F8598890197F1F7988B8F8754
:1035500081E00E9415140E945A1B07C081E00E945E
:1035600015148DE790E00E94311580E090E4ACE9FD
:10357000B5E48B879C87AD87BE876B857C858D8501
:103580009E8520E030E04AE755E40E941F02DC01FE
:10359000CB018F839887A987BA876F8178858985C2
:1035A0009A8520E030E040E85FE30E94250488230C
:1035B0002CF481E090E09E838D833FC06F817885FD
:1035C00089859A8520E03FEF4FE757E40E94C503C5
:1035D00018164CF56B857C858D859E8520E030E046
:1035E00040E251E40E941F02DC01CB01BC01CD018D
:1035F0000E944900DC01CB019E838D830FC080E9CE
:1036000091E09C838B838B819C810197F1F79C8354
:103610008B838D819E8101979E838D838D819E8179
:10362000009769F714C06F81788589859A850E9413
:103630004900DC01CB019E838D838D819E819A831D
:10364000898389819A810197F1F79A83898381E03F
:103650000E941514109218016F960FB6F894DEBFF1
:103660000FBECDBFCF91DF910895DF93CF9300D0F0
:10367000CDB7DEB7898380911801882F90E0FC01D7
:10368000EF5FFE4F90818981981741F48091180176
:103690008F5F8093180181E08A8306C080911801B2
:1036A0008F5F809318011A828A810F900F90CF91BB
:1036B000DF910895DF93CF9300D0CDB7DEB78CE8CC
:1036C00090E00E94311581E060E00E9404151092A4
:1036D000180119821DC00E94AF0F8A838A818F3F13
:1036E000D1F38A818F3F89F08A810E9424158091CD
:1036F0001801882F90E0FC01EF5FFE4F8A818083E4
:10370000809118018F5F8093180189818F5F898371
:103710008981863000F381E00E9415148CE990E0E5
:103720000E9431150F900F90CF91DF910895A1E283
:103730001A2EAA1BBB1BFD010DC0AA1FBB1FEE1F2B
:10374000FF1FA217B307E407F50720F0A21BB30B76
:10375000E40BF50B661F771F881F991F1A9469F7F2
:1037600060957095809590959B01AC01BD01CF014E
:1037700008952F923F924F925F926F927F928F9215
:103780009F92AF92BF92CF92DF92EF92FF920F93F0
:103790001F93CF93DF93CDB7DEB7CA1BDB0B0FB6FA
:1037A000F894DEBF0FBECDBF09942A8839884888B7
:1037B0005F846E847D848C849B84AA84B984C8844D
:1037C000DF80EE80FD800C811B81AA81B981CE0F44
:1037D000D11D0FB6F894DEBF0FBECDBFED01089529
:0437E000F894FFCF8B
:1037E400456E7465722050617373776F72643A002A
:1037F400436F7272656374205061737300496E6322
:103804006F7272656374205061737300456E7465E2
:1038140072204E657720506173733A005061737360
:10382400204368616E6765640000000000000000CA
:103834000031323341343536423738394346304526
:10384400440A1F1F1F1F0E0400041F111111111120
:103854001F041F111111111F1F041F1111111F1F0C
:103864001F041F11111F1F1F1F041F111F1F1F1FC4
:103874001F041F1F1F1F1F1F1F0000010105051527
:10388400153030313232323031324134353642370C
:08389400383943463045440079
:00000001FF
