:100000000C942A000C945E080C948B080C94B8088D
:100010000C94F20C0C94C50C0C9447000C94910BAE
:100020000C94BE0B0C94640B0C94E4090C94B7096B
:100030000C9447000C9447000C9447000C94470024
:100040000C9447000C9447000C9447000C94470014
:100050000C94470011241FBECFE5D8E0DEBFCDBF12
:1000600010E0A0E6B0E0E6EFF0E302C005900D92EC
:10007000A83AB107D9F710E0A8EAB0E001C01D9294
:10008000AD3BB107E1F70E94FC160C9479180C9473
:100090000000EF92FF920F931F937B018C0120E0F1
:1000A00030E040E05FE40E94F50388238CF0C80153
:1000B000B70120E030E040E05FE40E94C1010E940F
:1000C00055049B01AC01205030404040504806C0D0
:1000D000C801B7010E9455049B01AC01B901CA01D6
:1000E0001F910F91FF90EF900895A0E0B0E0EBE733
:1000F000F0E00C944218DC012B01FA019C91923043
:1001000008F439C1EB018881823008F433C194309E
:1001100069F4843009F02FC111969C91119789815F
:10012000981709F428C1A0E6B0E025C1843009F48D
:1001300021C18230A9F4923009F01DC19A01AD01AC
:1001400088E0EA010990AE01E90109929E0181501F
:10015000C1F7E201898111969C918923818308C1AD
:10016000923009F407C112962D903C901397EB0141
:100170008A819B811496AD90BD90CD90DC901797AD
:10018000EC80FD800E811F819101281B390BB90184
:1001900037FF04C066277727621B730B6032710537
:1001A0000CF061C0121613066CF537014801062EDB
:1001B00004C096948794779467940A94D2F721E0C8
:1001C00030E040E050E004C0220F331F441F551FB1
:1001D0006A95D2F721503040404050402E213F21B7
:1001E00040235123211531054105510521F021E01E
:1001F00030E040E050E079018A01E628F72808293C
:1002000019293CC0232BD1F1260E371E350146019A
:10021000062E04C096948794779467940A94D2F734
:1002200021E030E040E050E004C0220F331F441FC3
:10023000551F6A95D2F721503040404050402A2146
:100240003B214C215D21211531054105510521F04E
:1002500021E030E040E050E059016A01A628B728CB
:10026000C828D9280BC0821593052CF01C01AA249C
:10027000BB24650103C0EE24FF24870111969C91E5
:10028000D20111968C91981709F445C0992339F041
:10029000A80197012A193B094C095D0906C0A6016E
:1002A00095012E193F09400B510B57FD08C01182D3
:1002B0003382228224833583468357831DC081E0A5
:1002C00081833382228288279927DC01821B930B4A
:1002D000A40BB50B84839583A683B7830DC0220F2F
:1002E000331F441F551F24833583468357838281E0
:1002F000938101979383828324813581468157813D
:10030000DA01C9010197A109B1098F5F9F4FAF4F72
:10031000BF4328F30BC0918333822282EA0CFB1C7B
:100320000C1D1D1DE482F5820683178383E0808304
:10033000248135814681578157FF1AC0C901AA27F8
:1003400097FDA095BA2F81709070A070B0705695EF
:10035000479537952795822B932BA42BB52B848318
:100360009583A683B7838281938101969383828349
:10037000DF0101C0D201CD01CDB7DEB7E2E10C94BF
:100380005E18A0E2B0E0E7ECF1E00C944E1869834F
:100390007A838B839C832D833E834F835887E9E048
:1003A000EE2EF12CEC0EFD1ECE010196B7010E943F
:1003B0007E058E010F5E1F4FCE010596B8010E948B
:1003C0007E058A8991E089278A8BC701B801AE0131
:1003D000475E5F4F0E9475000E94A904A096E6E068
:1003E0000C946A18A0E2B0E0E8EFF1E00C944E182B
:1003F00069837A838B839C832D833E834F835887C5
:10040000F9E0EF2EF12CEC0EFD1ECE010196B701A6
:100410000E947E058E010F5E1F4FCE010596B8012A
:100420000E947E05C701B801AE01475E5F4F0E9482
:1004300075000E94A904A096E6E00C946A18A0E258
:10044000B0E0E5E2F2E00C94421869837A838B8392
:100450009C832D833E834F835887CE010196BE0136
:10046000675F7F4F0E947E05CE010596BE016F5EDD
:100470007F4F0E947E059985923088F0898982306D
:10048000C8F0943019F4823051F404C0843029F457
:10049000923081F480E690E0C6C0923049F420E0CA
:1004A0009A858A89981321E02A87CE010996BBC0D4
:1004B000823049F420E09A858A89981321E02A8BBA
:1004C000CE014196B0C02D843E844F8458886D88FB
:1004D0007E888F88988CEE24FF248701AA24BB2471
:1004E000650140E050E060E070E0E0E0F0E0C10174
:1004F00081709070892BE9F0E60CF71C081D191D1E
:100500009A01AB012A0D3B1D4C1D5D1D80E090E062
:10051000A0E0B0E0E614F7040805190520F481E036
:1005200090E0A0E0B0E0BA01A901480F591F6A1F8E
:100530007B1FAA0CBB1CCC1CDD1C97FE08C081E0F5
:1005400090E0A0E0B0E0A82AB92ACA2ADB2A3196B6
:10055000E032F10549F0660C771C881C991C569412
:10056000479437942794C3CFFA85EA892B893C892D
:100570008B859C85280F391F2E5F3F4F17C0CA01FE
:1005800081709070892B61F016950795F794E79428
:1005900080E090E0A0E0B0E8E82AF92A0A2B1B2BC3
:1005A00076956795579547952F5F3F4F77FDE7CF36
:1005B0000CC0440F551F661F771F17FD4160EE0CDE
:1005C000FF1C001F111F21503040403090E05907A0
:1005D00090E0690790E4790760F32B8F3C8FDB0193
:1005E000CA018F779070A070B07080349105A1051A
:1005F000B10561F447FD0AC0E114F10401051105DC
:1006000029F0405C5F4F6F4F7F4F40781A8EFE1786
:1006100011F081E08A8F4D8F5E8F6F8F78A383E01A
:10062000898FCE0149960E94A904A096E2E10C941C
:100630005E18A8E1B0E0EFE1F3E00C944A1869839A
:100640007A838B839C832D833E834F835887B9E0C5
:10065000EB2EF12CEC0EFD1ECE010196B7010E948F
:100660007E058E010F5E1F4FCE010596B8010E94D8
:100670007E052985223008F47EC03989323010F495
:10068000B8017CC08A859A8989278A87243011F02D
:10069000223031F4231709F06EC060E670E06EC0BE
:1006A000343039F41D861E861F86188A1C861B86E8
:1006B00004C0323021F484E08987B7015FC02B8504
:1006C0003C858B899C89281B390B3C872B87ED84C3
:1006D000FE840F851889AD88BE88CF88D88CEA142F
:1006E000FB040C051D0540F4EE0CFF1C001F111F40
:1006F000215030403C872B8720E030E040E050E044
:1007000080E090E0A0E0B0E460E070E0EA14FB0478
:100710000C051D0540F0282B392B4A2B5B2BEA18C2
:10072000FB080C091D09B695A79597958795EE0CC2
:10073000FF1C001F111F6F5F7F4F6F31710531F775
:10074000DA01C9018F779070A070B0708034910584
:10075000A105B10561F427FD0AC0E114F10401050A
:10076000110529F0205C3F4F4F4F5F4F20782D87B8
:100770003E874F87588BBE01675F7F4FCB010E943A
:10078000A9046896EAE00C946618A8E1B0E0EBECE6
:10079000F3E00C944E1869837A838B839C832D83BA
:1007A0003E834F83588789E0E82EF12CEC0EFD1E26
:1007B000CE010196B7010E947E058E010F5E1F4F8C
:1007C000CE010596B8010E947E058985823040F0F1
:1007D0008989823028F0C701B8010E94F60501C05E
:1007E0008FEF6896E6E00C946A18A8E1B0E0EBEFB2
:1007F000F3E00C944E1869837A838B839C832D835A
:100800003E834F83588789E0E82EF12CEC0EFD1EC5
:10081000CE010196B7010E947E058E010F5E1F4F2B
:10082000CE010596B8010E947E058985823040F090
:100830008989823028F0C701B8010E94F60501C0FD
:100840008FEF6896E6E00C946A18A8E1B0E0EBE25E
:10085000F4E00C944E1869837A838B839C832D83F8
:100860003E834F83588789E0E82EF12CEC0EFD1E65
:10087000CE010196B7010E947E058E010F5E1F4FCB
:10088000CE010596B8010E947E058985823040F030
:100890008989823028F0C701B8010E94F60501C09D
:1008A00081E06896E6E00C946A18ACE0B0E0EBE515
:1008B000F4E00C94521869837A838B839C83CE0175
:1008C0000196BE016B5F7F4F0E947E058D81823055
:1008D00061F1823050F1843021F48E81882351F10E
:1008E0002EC02F81388537FD20C06E812F31310514
:1008F0001CF06623F9F023C08EE190E0821B930B7D
:1009000029853A854B855C8504C056954795379572
:1009100027958A95D2F76623B1F05095409530958A
:1009200021953F4F4F4F5F4F0EC020E030E040E039
:1009300050E009C02FEF3FEF4FEF5FE704C020E02A
:1009400030E040E050E8B901CA012C96E2E00C9496
:100950006E18DF92EF92FF920F931F93FC01E480D9
:10096000F58006811781D1808081823048F480E053
:1009700090E0A0E1B0E0E82AF92A0A2B1B2BA5C0E1
:10098000843009F49FC0823021F4EE24FF248701D3
:1009900005C0E114F1040105110519F4E0E0F0E0EF
:1009A00096C0628173819FEF623879070CF05BC05B
:1009B00022E83FEF261B370B2A3131052CF020E0CF
:1009C00030E040E050E02AC0B801A701022E04C088
:1009D00076956795579547950A94D2F781E090E010
:1009E000A0E0B0E004C0880F991FAA1FBB1F2A9582
:1009F000D2F70197A109B1098E219F21A023B1232C
:100A00000097A105B10521F081E090E0A0E0B0E001
:100A10009A01AB01282B392B4A2B5B2BDA01C90138
:100A20008F779070A070B07080349105A105B105EA
:100A300039F427FF09C0205C3F4F4F4F5F4F04C080
:100A4000215C3F4F4F4F5F4FE0E0F0E02030A0E0EF
:100A50003A07A0E04A07A0E45A0710F0E1E0F0E00E
:100A600079018A0127C06038710564F5FB01E158FE
:100A7000FF4FD801C7018F779070A070B07080349D
:100A80009105A105B10539F4E7FE0DC080E490E0C1
:100A9000A0E0B0E004C08FE390E0A0E0B0E0E80E9A
:100AA000F91E0A1F1B1F17FF05C016950795F7941F
:100AB000E794319687E016950795F794E7948A9521
:100AC000D1F705C0EE24FF248701EFEFF0E06E2F91
:100AD000679566276795902F9F77D794DD24D794E5
:100AE0008E2F8695492F462B582F5D29B701CA01B5
:100AF0001F910F91FF90EF90DF900895FC01DB01B3
:100B0000408151812281622F6F7770E0221F22275E
:100B1000221F9381892F880F822B282F30E0991F65
:100B20009927991F11969C93119721153105A9F5C5
:100B3000411551056105710511F482E037C082E865
:100B40009FEF13969C938E9312979A01AB0167E0E7
:100B5000220F331F441F551F6A95D1F783E08C93F2
:100B60000DC0220F331F441F551F12968D919C916B
:100B70001397019713969C938E931297203080E0E1
:100B8000380780E0480780E4580758F314962D93FF
:100B90003D934D935C93179708952F3F310579F45A
:100BA000411551056105710519F484E08C93089590
:100BB00064FF03C081E08C9312C01C9210C02F57B9
:100BC000304013963C932E93129783E08C9387E0EA
:100BD000440F551F661F771F8A95D1F770641496CE
:100BE0004D935D936D937C93179708951F93DC014C
:100BF000FB019C91923008F447C08081823008F458
:100C000043C0943051F411961C91843099F5818140
:100C1000682F70E0611B71093FC0843021F0923071
:100C200031F48230B9F18181882389F12DC0119688
:100C30001C9111978230F1F081811817D9F4129626
:100C40002D913C911397828193818217930794F0A1
:100C500028173907BCF014968D919D910D90BC9189
:100C6000A02D2481358146815781281739074A07ED
:100C70005B0718F4112341F00AC082179307A407F9
:100C8000B50740F4112319F061E070E005C06FEF83
:100C90007FEF02C060E070E0CB011F910895DF9309
:100CA000CF93CDB7DEB7AFE5B0E0EFE5F0E0808100
:100CB00080688C93CF91DF910895DF93CF93CDB768
:100CC000DEB7AFE5B0E0EFE5F0E080818F778C93A1
:100CD000CF91DF910895DF93CF93CDB7DEB7A5E530
:100CE000B0E0E5E5F0E080818E7F8C93A5E5B0E093
:100CF000E5E5F0E0808182608C93ABE5B0E0EBE568
:100D0000F0E080818F7B8C93AAE5B0E0EAE5F0E02B
:100D1000808180648C93CF91DF910895DF93CF938E
:100D2000CDB7DEB7A5E5B0E0E5E5F0E080818B7FEB
:100D30008C93A5E5B0E0E5E5F0E0808188608C93D8
:100D4000ABE5B0E0EBE5F0E080818F778C93AAE52E
:100D5000B0E0EAE5F0E0808180688C93CF91DF918C
:100D60000895DF93CF93CDB7DEB7A4E5B0E0E4E517
:100D7000F0E080818F7B8C93ABE5B0E0EBE5F0E0B9
:100D800080818F7D8C93AAE5B0E0EAE5F0E0808178
:100D900080628C93CF91DF910895DF93CF93CDB78D
:100DA000DEB7ABE5B0E0EBE5F0E0808180648C93EA
:100DB000CF91DF910895DF93CF93CDB7DEB7ABE549
:100DC000B0E0EBE5F0E080818F7B8C93CF91DF91F9
:100DD0000895DF93CF93CDB7DEB7ABE5B0E0EBE599
:100DE000F0E0808180688C93CF91DF910895DF934C
:100DF000CF93CDB7DEB7ABE5B0E0EBE5F0E08081B7
:100E00008F778C93CF91DF910895DF93CF93CDB7F8
:100E1000DEB7ABE5B0E0EBE5F0E0808180628C937B
:100E2000CF91DF910895DF93CF93CDB7DEB7ABE5D8
:100E3000B0E0EBE5F0E080818F7D8C93CF91DF9186
:100E40000895DF93CF9300D0CDB7DEB79A8389831F
:100E500089819A81009731F089819A819093B800B5
:100E60008093B7000F900F90CF91DF910895DF939B
:100E7000CF9300D0CDB7DEB79A83898389819A81D9
:100E8000009731F089819A819093BA008093B900DC
:100E90000F900F90CF91DF910895DF93CF9300D003
:100EA000CDB7DEB79A83898389819A81009731F023
:100EB00089819A819093BC008093BB000F900F9022
:100EC000CF91DF910895DF93CF9300D00F92CDB7EC
:100ED000DEB789838981282F30E03B832A838A818A
:100EE0009B8184309105A1F12A813B812530310518
:100EF00034F48A819B818130910561F046C02A815A
:100F00003B8127303105A9F08A819B818A30910588
:100F100071F13BC0A5E5B0E0E5E5F0E080818160DE
:100F20008C93A5E5B0E0E5E5F0E080818D7F8C93C2
:100F30002CC0A5E5B0E0E5E5F0E0808181608C9310
:100F4000A5E5B0E0E5E5F0E0808182608C931DC00E
:100F5000A5E5B0E0E5E5F0E080818E7F8C93A5E526
:100F6000B0E0E5E5F0E0808182608C930EC0A5E5FD
:100F7000B0E0E5E5F0E080818E7F8C93A5E5B0E000
:100F8000E5E5F0E080818D7F8C930F900F900F90BE
:100F9000CF91DF910895DF93CF9300D00F92CDB71B
:100FA000DEB789838981282F30E03B832A838A81B9
:100FB0009B8184309105A1F12A813B812530310547
:100FC00034F48A819B818130910561F046C02A8189
:100FD0003B8127303105A9F08A819B818A309105B8
:100FE00071F13BC0A5E5B0E0E5E5F0E0808184600B
:100FF0008C93A5E5B0E0E5E5F0E08081877F8C93F8
:101000002CC0A5E5B0E0E5E5F0E0808184608C933C
:10101000A5E5B0E0E5E5F0E0808188608C931DC037
:10102000A5E5B0E0E5E5F0E080818B7F8C93A5E558
:10103000B0E0E5E5F0E0808188608C930EC0A5E526
:10104000B0E0E5E5F0E080818B7F8C93A5E5B0E032
:10105000E5E5F0E08081877F8C930F900F900F90F3
:10106000CF91DF910895DF93CF9300D00F92CDB74A
:10107000DEB789838981282F30E03B832A838A81E8
:101080009B818430910569F02A813B8127303105AD
:1010900079F4A4E5B0E0E4E5F0E0808180648C932D
:1010A00007C0A4E5B0E0E4E5F0E080818F7B8C939D
:1010B0000F900F900F90CF91DF9108951F920F9294
:1010C0000FB60F9211242F933F934F935F936F931B
:1010D0007F938F939F93AF93BF93EF93FF93DF9390
:1010E000CF93CDB7DEB7E091B700F091B800099586
:1010F000CF91DF91FF91EF91BF91AF919F918F9130
:101100007F916F915F914F913F912F910F900FBE03
:101110000F901F9018951F920F920FB60F921124E7
:101120002F933F934F935F936F937F938F939F93EF
:10113000AF93BF93EF93FF93DF93CF93CDB7DEB71A
:10114000E091B900F091BA000995CF91DF91FF913C
:10115000EF91BF91AF919F918F917F916F915F912F
:101160004F913F912F910F900FBE0F901F901895A8
:101170001F920F920FB60F9211242F933F934F930C
:101180005F936F937F938F939F93AF93BF93EF93EF
:10119000FF93DF93CF93CDB7DEB7E091BB00F09123
:1011A000BC000995CF91DF91FF91EF91BF91AF9175
:1011B0009F918F917F916F915F914F913F912F916F
:1011C0000F900FBE0F901F901895DF93CF93CDB760
:1011D000DEB7A3E5B0E0E3E5F0E0808180648C93C6
:1011E000A3E5B0E0E3E5F0E0808188608C93A3E5BF
:1011F000B0E0E3E5F0E0808181608C93A3E5B0E0AE
:10120000E3E5F0E080818D7F8C93A3E5B0E0E3E53A
:10121000F0E0808184608C93A3E5B0E0E3E5F0E04A
:10122000808180618C93A3E5B0E0E3E5F0E080810C
:1012300080628C93A9E5B0E0E9E5F0E080818E7FE3
:101240008C93A9E5B0E0E9E5F0E080818D7F8C9397
:10125000A8E5B0E0E8E5F0E0808181608C93A8E546
:10126000B0E0E8E5F0E0808182608C93E2E5F0E0B8
:101270001082ECE5F0E01082CF91DF910895DF93CA
:10128000CF930F92CDB7DEB78983E2E5F0E0898195
:1012900080830F90CF91DF910895DF93CF930F92CA
:1012A000CDB7DEB78983ECE5F0E0898180830F90CC
:1012B000CF91DF910895DF93CF93CDB7DEB7A9E546
:1012C000B0E0E9E5F0E0808181608C93CF91DF911F
:1012D0000895DF93CF93CDB7DEB7A9E5B0E0E9E598
:1012E000F0E080818E7F8C93CF91DF910895DF9322
:1012F000CF93CDB7DEB7A9E5B0E0E9E5F0E08081B6
:1013000082608C93CF91DF910895DF93CF93CDB717
:10131000DEB7A9E5B0E0E9E5F0E080818D7F8C9350
:10132000CF91DF910895DF93CF9300D0CDB7DEB793
:101330009A83898389819A819093A9008093A800D8
:101340000F900F90CF91DF910895DF93CF9300D04E
:10135000CDB7DEB79A83898389819A819093AB0058
:101360008093AA000F900F90CF91DF9108951F9264
:101370000F920FB60F9211242F933F934F935F93C9
:101380006F937F938F939F93AF93BF93EF93FF934D
:10139000DF93CF93CDB7DEB7E091A800F091A9001D
:1013A0000995CF91DF91FF91EF91BF91AF919F91FF
:1013B0008F917F916F915F914F913F912F910F90FE
:1013C0000FBE0F901F9018951F920F920FB60F929D
:1013D00011242F933F934F935F936F937F938F933A
:1013E0009F93AF93BF93EF93FF93DF93CF93CDB7CB
:1013F000DEB7E091AA00F091AB000995CF91DF91A3
:10140000FF91EF91BF91AF919F918F917F916F91DC
:101410005F914F913F912F910F900FBE0F901F90B2
:101420001895DF93CF93CDB7DEB7AFE4B0E0EFE42C
:10143000F0E080818E7F8C93AFE4B0E0EFE4F0E0E9
:1014400080818D7F8C93AEE4B0E0EEE4F0E08081AB
:10145000877F8C93AEE4B0E0EEE4F0E080818F7E95
:101460008C93AEE4B0E0EEE4F0E0808181608C9398
:10147000AEE4B0E0EEE4F0E080818D7F8C93AEE4EA
:10148000B0E0EEE4F0E0808184608C93AFE4B0E003
:10149000EFE4F0E080818F7B8C93AFE4B0E0EFE489
:1014A000F0E080818F7E8C93AFE4B0E0EFE4F0E079
:1014B00080818F778C93AFE4B0E0EFE4F0E080813F
:1014C0008F7D8C93A9E5B0E0E9E5F0E080818B7F2A
:1014D0008C93A9E5B0E0E9E5F0E080818F7E8C9304
:1014E000A9E5B0E0E9E5F0E08081877F8C93A8E58D
:1014F000B0E0E8E5F0E0808184608C93A8E5B0E09E
:10150000E8E5F0E0808180618C93A8E5B0E0E8E553
:10151000F0E0808188608C93ECE4F0E0118210822E
:10152000EAE4F0E011821082E8E4F0E01182108237
:10153000CF91DF910895DF93CF930F92CDB7DEB7B0
:101540008983ECE4F0E08981882F90E091838083A7
:101550000F90CF91DF910895DF93CF930F92CDB786
:10156000DEB78983EAE4F0E08981882F90E09183F7
:1015700080830F90CF91DF910895DF93CF930F92E7
:10158000CDB7DEB78983E8E4F0E08981882F90E069
:10159000918380830F90CF91DF910895DF93CF9354
:1015A000CDB7DEB7A9E5B0E0E9E5F0E08081846081
:1015B0008C93CF91DF910895DF93CF93CDB7DEB7B2
:1015C000A9E5B0E0E9E5F0E080818B7F8C93CF91D5
:1015D000DF910895DF93CF93CDB7DEB7A9E5B0E0F3
:1015E000E9E5F0E0808180618C93CF91DF910895EF
:1015F000DF93CF93CDB7DEB7A9E5B0E0E9E5F0E042
:1016000080818F7E8C93CF91DF910895DF93CF936C
:10161000CDB7DEB7A9E5B0E0E9E5F0E0808188600C
:101620008C93CF91DF910895DF93CF93CDB7DEB741
:10163000A9E5B0E0E9E5F0E08081877F8C93CF9168
:10164000DF910895DF93CF9300D0CDB7DEB79A83B3
:10165000898389819A81009731F089819A81909359
:10166000AD008093AC000F900F90CF91DF91089563
:10167000DF93CF9300D0CDB7DEB79A83898389817A
:101680009A81009731F089819A819093AF0080937D
:10169000AE000F900F90CF91DF910895DF93CF931D
:1016A00000D0CDB7DEB79A83898389819A8100976C
:1016B00031F089819A819093B1008093B0000F90AE
:1016C0000F90CF91DF9108951F920F920FB60F9256
:1016D00011242F933F934F935F936F937F938F9337
:1016E0009F93AF93BF93EF93FF93DF93CF93CDB7C8
:1016F000DEB7E091AC00F091AD000995CF91DF919C
:10170000FF91EF91BF91AF919F918F917F916F91D9
:101710005F914F913F912F910F900FBE0F901F90AF
:1017200018951F920F920FB60F9211242F933F938B
:101730004F935F936F937F938F939F93AF93BF93D9
:10174000EF93FF93DF93CF93CDB7DEB7E091AE0079
:10175000F091AF000995CF91DF91FF91EF91BF918B
:10176000AF919F918F917F916F915F914F913F9139
:101770002F910F900FBE0F901F9018951F920F92F0
:101780000FB60F9211242F933F934F935F936F9354
:101790007F938F939F93AF93BF93EF93FF93DF93C9
:1017A000CF93CDB7DEB7E091B000F091B1000995CD
:1017B000CF91DF91FF91EF91BF91AF919F918F9169
:1017C0007F916F915F914F913F912F910F900FBE3D
:1017D0000F901F901895DF93CF93CDB7DEB7A5E498
:1017E000B0E0E5E4F0E080818F7B8C93A5E4B0E08D
:1017F000E5E4F0E08081877F8C93A5E4B0E0E5E448
:10180000F0E0808181608C93A5E4B0E0E5E4F0E055
:10181000808182608C93A5E4B0E0E5E4F0E0808113
:1018200084608C93A5E4B0E0E5E4F0E080818F7EF5
:101830008C93A5E4B0E0E5E4F0E080818F7D8C93AB
:10184000A9E5B0E0E9E5F0E080818F7B8C93A9E524
:10185000B0E0E9E5F0E080818F778C93A8E5B0E017
:10186000E8E5F0E0808180648C93A8E5B0E0E8E5ED
:10187000F0E0808180688C93E4E4F0E01082E3E49F
:10188000F0E01082CF91DF910895DF93CF930F9214
:10189000CDB7DEB78983E4E4F0E0898180830F90DF
:1018A000CF91DF910895DF93CF930F92CDB7DEB73D
:1018B0008983E3E4F0E0898180830F90CF91DF9109
:1018C0000895DF93CF93CDB7DEB7A9E5B0E0E9E5A2
:1018D000F0E0808180648C93CF91DF910895DF9355
:1018E000CF93CDB7DEB7A9E5B0E0E9E5F0E08081C0
:1018F0008F7B8C93CF91DF910895DF93CF93CDB7FA
:10190000DEB7A9E5B0E0E9E5F0E0808180688C937E
:10191000CF91DF910895DF93CF93CDB7DEB7A9E5DF
:10192000B0E0E9E5F0E080818F778C93CF91DF9193
:101930000895DF93CF9300D0CDB7DEB79A83898324
:1019400089819A81009731F089819A819093B300BF
:101950008093B2000F900F90CF91DF910895DF93A5
:10196000CF9300D0CDB7DEB79A83898389819A81DE
:10197000009731F089819A819093B5008093B400EB
:101980000F900F90CF91DF9108951F920F920FB695
:101990000F9211242F933F934F935F936F937F93F5
:1019A0008F939F93AF93BF93EF93FF93DF93CF9367
:1019B000CDB7DEB7E091B200F091B3000995CF91B9
:1019C000DF91FF91EF91BF91AF919F918F917F91A7
:1019D0006F915F914F913F912F910F900FBE0F909C
:1019E0001F9018951F920F920FB60F9211242F93EC
:1019F0003F934F935F936F937F938F939F93AF9397
:101A0000BF93EF93FF93DF93CF93CDB7DEB7E09112
:101A1000B400F091B5000995CF91DF91FF91EF915E
:101A2000BF91AF919F918F917F916F915F914F91F6
:101A30003F912F910F900FBE0F901F901895DF933D
:101A4000CF93CDB7DEB783E090E067E070E040E091
:101A500050E00E94810D83E090E066E070E040E09D
:101A600050E00E94810D83E090E065E070E040E08E
:101A700050E00E94810DCF91DF910895DF93CF93C5
:101A800000D000D0CDB7DEB78A8319828A81282F93
:101A900030E03C832B838B819C8181309105A1F0C8
:101AA0002B813C8122303105D1F08B819C810097C4
:101AB00001F583E067E00E941410882319F481E0A7
:101AC000898317C0198215C083E066E00E94141054
:101AD000882319F481E089830CC019820AC083E04D
:101AE00065E00E941410882319F481E0898301C005
:101AF000198289810F900F900F900F90CF91DF91F5
:101B00000895DF93CF9300D000D00F92CDB7DEB70A
:101B100089836A834B838981282F30E03D832C831E
:101B20008C819D818130910509F443C02C813D81D8
:101B3000223031052CF48C819D81009771F0BCC05E
:101B40002C813D812230310509F45FC08C819D815B
:101B50008330910509F485C0AFC08B818130A1F439
:101B6000AAE3B0E0EAE3F0E08081482F8A81282FE1
:101B700030E081E090E0022E02C0880F991F0A94A5
:101B8000E2F7842B8C9398C0AAE3B0E0EAE3F0E09C
:101B90008081482F8A81282F30E081E090E0022E5A
:101BA00002C0880F991F0A94E2F7809584238C93D2
:101BB00083C08B818130A1F4A7E3B0E0E7E3F0E0DC
:101BC0008081482F8A81282F30E081E090E0022E2A
:101BD00002C0880F991F0A94E2F7842B8C936CC083
:101BE000A7E3B0E0E7E3F0E08081482F8A81282F67
:101BF00030E081E090E0022E02C0880F991F0A9425
:101C0000E2F7809584238C9357C08B818130A1F4B7
:101C1000A4E3B0E0E4E3F0E08081482F8A81282F3C
:101C200030E081E090E0022E02C0880F991F0A94F4
:101C3000E2F7842B8C9340C0A4E3B0E0E4E3F0E04F
:101C40008081482F8A81282F30E081E090E0022EA9
:101C500002C0880F991F0A94E2F7809584238C9321
:101C60002BC08B818130A1F4A1E3B0E0E1E3F0E08F
:101C70008081482F8A81282F30E081E090E0022E79
:101C800002C0880F991F0A94E2F7842B8C9314C02A
:101C9000A1E3B0E0E1E3F0E08081482F8A81282FC2
:101CA00030E081E090E0022E02C0880F991F0A9474
:101CB000E2F7809584238C930F900F900F900F90F4
:101CC0000F90CF91DF910895DF93CF9300D000D094
:101CD0000F92CDB7DEB789836A834B838981282F22
:101CE00030E03D832C838C819D818130910509F406
:101CF00043C02C813D81223031052CF48C819D81A3
:101D0000009771F0BCC02C813D812230310509F46F
:101D10005FC08C819D818330910509F485C0AFC07F
:101D20008B818823A9F4ABE3B0E0EBE3F0E08081A2
:101D3000482F8A81282F30E081E090E0022E02C0F7
:101D4000880F991F0A94E2F7809584238C9397C09B
:101D5000ABE3B0E0EBE3F0E08081482F8A81282FED
:101D600030E081E090E0022E02C0880F991F0A94B3
:101D7000E2F7842B8C9383C08B818823A9F4A8E39A
:101D8000B0E0E8E3F0E08081482F8A81282F30E03E
:101D900081E090E0022E02C0880F991F0A94E2F7BA
:101DA000809584238C936BC0A8E3B0E0E8E3F0E077
:101DB0008081482F8A81282F30E081E090E0022E38
:101DC00002C0880F991F0A94E2F7842B8C9357C0A6
:101DD0008B818823A9F4A5E3B0E0E5E3F0E08081FE
:101DE000482F8A81282F30E081E090E0022E02C047
:101DF000880F991F0A94E2F7809584238C933FC043
:101E0000A5E3B0E0E5E3F0E08081482F8A81282F48
:101E100030E081E090E0022E02C0880F991F0A9402
:101E2000E2F7842B8C932BC08B818823A9F4A2E347
:101E3000B0E0E2E3F0E08081482F8A81282F30E093
:101E400081E090E0022E02C0880F991F0A94E2F709
:101E5000809584238C9313C0A2E3B0E0E2E3F0E02A
:101E60008081482F8A81282F30E081E090E0022E87
:101E700002C0880F991F0A94E2F7842B8C930F906D
:101E80000F900F900F900F90CF91DF910895DF93F7
:101E9000CF9300D000D0CDB7DEB789836A83898124
:101EA000282F30E03C832B838B819C8181309105EE
:101EB000D1F02B813C81223031052CF48B819C8127
:101EC000009761F01EC02B813C812230310581F0EA
:101ED0008B819C818330910581F013C0EBE3F0E0AE
:101EE0008A8180830EC0E8E3F0E08A81808309C0A4
:101EF000E5E3F0E08A81808304C0E2E3F0E08A81D8
:101F000080830F900F900F900F90CF91DF910895E5
:101F1000DF93CF9300D00F92CDB7DEB789836A836A
:101F20004B830F900F900F90CF91DF910895DF9327
:101F3000CF9300D000D0CDB7DEB789836A83898183
:101F4000282F30E03C832B838B819C81813091054D
:101F500049F12B813C81223031052CF48B819C810D
:101F6000009761F05AC02B813C812230310571F11C
:101F70008B819C8183309105E9F14FC0ABE3B0E0E8
:101F8000EBE3F0E08081482F8A81282F30E081E068
:101F900090E0022E02C0880F991F0A94E2F784276E
:101FA0008C933BC0A8E3B0E0E8E3F0E08081482FE9
:101FB0008A81282F30E081E090E0022E02C0880F55
:101FC000991F0A94E2F784278C9327C0A5E3B0E019
:101FD000E5E3F0E08081482F8A81282F30E081E01E
:101FE00090E0022E02C0880F991F0A94E2F784271E
:101FF0008C9313C0A2E3B0E0E2E3F0E08081482FCD
:102000008A81282F30E081E090E0022E02C0880F04
:10201000991F0A94E2F784278C930F900F900F90EA
:102020000F90CF91DF910895DF93CF9300D000D030
:102030000F92CDB7DEB78A836B8319828A81282FEE
:1020400030E03D832C834C815D814130510541F16D
:102050008C819D818230910534F42C813D81211544
:10206000310561F052C04C815D814230510551F122
:102070008C819D8183309105B9F147C0E9E3F0E09F
:102080008081282F30E08B81882F90E0A90102C049
:10209000559547958A95E2F7CA018170898335C0C5
:1020A000E6E3F0E08081282F30E08B81882F90E0FC
:1020B000A90102C0559547958A95E2F7CA0181703A
:1020C000898323C0E3E3F0E08081282F30E08B8117
:1020D000882F90E0A90102C0559547958A95E2F7AF
:1020E000CA018170898311C0E0E3F0E08081282F6C
:1020F00030E08B81882F90E0A90102C0559547956B
:102100008A95E2F7CA018170898389810F900F90C7
:102110000F900F900F90CF91DF910895DF93CF93A1
:1021200000D0CDB7DEB789836A830F900F90CF912F
:10213000DF910895DF93CF93CDB7DEB7A6970FB6A3
:10214000F894DEBF0FBECDBF80E062E041E00E94A8
:10215000640E80E090E0A0E8BFE38BA39CA3ADA356
:10216000BEA36BA17CA18DA19EA12BEA3AEA4AEA0B
:1021700050E40E941F02DC01CB018F8F98A3A9A31A
:10218000BAA36F8D78A189A19AA120E030E040E840
:102190005FE30E94250488231CF481E08E8F91C0A8
:1021A0006F8D78A189A19AA120E030E04FE753E438
:1021B0000E94C50318160CF07BC06BA17CA18DA1F9
:1021C0009EA120E030E04AE754E40E941903DC01BC
:1021D000CB018A8F9B8FAC8FBD8F6A8D7B8D8C8D51
:1021E0009D8D20E030E04AE755E40E941F02DC01AB
:1021F000CB018E8B9F8BA88FB98F6E897F89888D3D
:10220000998D20E030E040E85FE30E9425048823B8
:102210002CF481E090E09D8B8C8B3FC06E897F8990
:10222000888D998D20E03FEF4FE757E40E94C5036A
:1022300018164CF56A8D7B8D8C8D9D8D20E030E0DD
:1022400040E251E40E941F02DC01CB01BC01CD0140
:102250000E944900DC01CB019D8B8C8B0FC080E973
:1022600091E09B8B8A8B8A899B890197F1F79B8BE5
:102270008A8B8C899D8901979D8B8C8B8C899D89FC
:10228000009769F724C06E897F89888D998D0E9497
:102290004900DC01CB019D8B8C8B8C899D89998BAE
:1022A000888B888999890197F1F7998B888B0FC062
:1022B0006F8D78A189A19AA10E944900DC01CB0110
:1022C0008E8F8E8D8F878F858A95F1F78F8780E02F
:1022D00062E040E00E94640E80E090E0A0E0B0E4A4
:1022E0008B879C87AD87BE876B857C858D859E851A
:1022F00020E030E04AE755E40E941F02DC01CB01F8
:102300008F839887A987BA876F81788589859A8511
:1023100020E030E040E85FE30E94250488232CF4AD
:1023200081E090E09E838D833FC06F8178858985B1
:102330009A8520E03FEF4FE757E40E94C503181647
:102340004CF56B857C858D859E8520E030E040E2F4
:1023500051E40E941F02DC01CB01BC01CD010E94AF
:102360004900DC01CB019E838D830FC080E991E0A1
:102370009C838B838B819C810197F1F79C838B835A
:102380008D819E8101979E838D838D819E81009793
:1023900069F714C06F81788589859A850E94490004
:1023A000DC01CB019E838D838D819E819A838983FD
:1023B00089819A810197F1F79A838983A6960FB64E
:1023C000F894DEBF0FBECDBFCF91DF910895DF93AC
:1023D000CF93CDB7DEB7E4970FB6F894DEBF0FBE4C
:1023E000CDBF80E090E063E070E041E050E00E940B
:1023F000810D80E090E062E070E041E050E00E94FA
:10240000810D81E090E060E070E041E050E00E94EA
:10241000810D81E090E061E070E041E050E00E94D9
:10242000810D81E090E062E070E041E050E00E94C8
:10243000810D82E090E066E070E041E050E00E94B3
:10244000810D80E090E0A0E7B1E489AB9AABABAB43
:10245000BCAB69A97AA98BA99CA920E030E04AE726
:1024600055E40E941F02DC01CB018DA79EA7AFA7F8
:10247000B8AB6DA57EA58FA598A920E030E040E817
:102480005FE30E94250488232CF481E090E09CA760
:102490008BA73FC06DA57EA58FA598A920E03FEF33
:1024A0004FE757E40E94C50318164CF569A97AA9AD
:1024B0008BA99CA920E030E040E251E40E941F0279
:1024C000DC01CB01BC01CD010E944900DC01CB0144
:1024D0009CA78BA70FC080E991E09AA789A789A53F
:1024E0009AA50197F1F79AA789A78BA59CA50197B3
:1024F0009CA78BA78BA59CA5009769F714C06DA519
:102500007EA58FA598A90E944900DC01CB019CA75C
:102510008BA78BA59CA598A78FA38FA198A50197A2
:10252000F1F798A78FA383E00E94DE1380E090E08C
:10253000A0EAB0E48BA39CA3ADA3BEA36BA17CA136
:102540008DA19EA120E030E04AE755E40E941F02E1
:10255000DC01CB018F8F98A3A9A3BAA36F8D78A1BB
:1025600089A19AA120E030E040E85FE30E942504C1
:1025700088232CF481E090E09E8F8D8F3FC06F8D7B
:1025800078A189A19AA120E03FEF4FE757E40E948C
:10259000C50318164CF56BA17CA18DA19EA120E06E
:1025A00030E040E251E40E941F02DC01CB01BC019B
:1025B000CD010E944900DC01CB019E8F8D8F0FC0A1
:1025C00080E991E09C8F8B8F8B8D9C8D0197F1F72B
:1025D0009C8F8B8F8D8D9E8D01979E8F8D8F8D8D76
:1025E0009E8D009769F714C06F8D78A189A19AA17B
:1025F0000E944900DC01CB019E8F8D8F8D8D9E8DB9
:102600009A8F898F898D9A8D0197F1F79A8F898F8B
:1026100083E00E94DE1380E090E0A8ECB2E48D8BB2
:102620009E8BAF8BB88F6D897E898F89988D2BEAB1
:102630003AEA4AEA50E40E941F02DC01CB01898B8E
:102640009A8BAB8BBC8B69897A898B899C8920E0BA
:1026500030E040E85FE30E94250488231CF481E019
:10266000888B91C069897A898B899C8920E030E0C8
:102670004FE753E40E94C50318160CF07BC06D8928
:102680007E898F89988D20E030E04AE754E40E94EB
:102690001903DC01CB018C879D87AE87BF876C85D2
:1026A0007D858E859F8520E030E04AE755E40E94D5
:1026B0001F02DC01CB0188879987AA87BB876885C1
:1026C00079858A859B8520E030E040E85FE30E94C1
:1026D000250488232CF481E090E09F838E833FC003
:1026E000688579858A859B8520E03FEF4FE757E431
:1026F0000E94C50318164CF56C857D858E859F85D7
:1027000020E030E040E251E40E941F02DC01CB01F6
:10271000BC01CD010E944900DC01CB019F838E8367
:102720000FC080E991E09D838C838C819D8101970E
:10273000F1F79D838C838E819F8101979F838E8388
:102740008E819F81009769F724C0688579858A8585
:102750009B850E944900DC01CB019F838E838E8183
:102760009F819B838A838A819B810197F1F79B8359
:102770008A830FC069897A898B899C890E94490064
:10278000DC01CB01888B8889898389818A95F1F75F
:10279000898383E00E94DE1382E00E94DE1388E2D8
:1027A0000E94DE1381E00E94DE13E4960FB6F894D7
:1027B000DEBF0FBECDBFCF91DF910895DF93CF93E2
:1027C0000F92CDB7DEB7898380E063E040E00E94DE
:1027D000640E898182958F70982F917081E060E0FE
:1027E000492F0E94640E8981829586958770982F63
:1027F000917081E061E0492F0E94640E8981829589
:10280000869586958370982F917081E062E0492FBC
:102810000E94640E8981982F991F9927991F81E042
:1028200066E0492F0E94640E0E949A108981982FB9
:10283000917081E060E0492F0E94640E8981869545
:10284000982F917081E061E0492F0E94640E898188
:1028500086958695982F917081E062E0492F0E94BD
:10286000640E8981869586958695982F917081E072
:1028700066E0492F0E94640E0E949A100F90CF913B
:10288000DF910895DF93CF930F92CDB7DEB78983A1
:1028900080E063E041E00E94640E898182958F7040
:1028A000982F917081E060E0492F0E94640E898129
:1028B000829586958770982F917081E061E0492F0D
:1028C0000E94640E89818295869586958370982FE3
:1028D000917081E062E0492F0E94640E8981982FF7
:1028E000991F9927991F81E066E0492F0E94640E85
:1028F0000E949A108981982F917081E060E0492FA1
:102900000E94640E89818695982F917081E061E024
:10291000492F0E94640E898186958695982F917023
:1029200081E062E0492F0E94640E89818695869538
:102930008695982F917081E066E0492F0E94640E81
:102940000E949A100F90CF91DF910895DF93CF935B
:1029500000D000D0CDB7DEB789836A838981282F64
:1029600030E03C832B838B819C81009731F02B815D
:102970003C812130310531F009C08A8180580E94A4
:10298000DE1304C08A8180540E94DE130F900F90E2
:102990000F900F90CF91DF910895DF93CF9300D0E8
:1029A0000F92CDB7DEB78A836B838A81882319F4AF
:1029B0008B81898306C08A81813019F48B81805C88
:1029C000898389818068898389810E94DE130F90C1
:1029D0000F900F90CF91DF910895DF93CF930F92D7
:1029E000CDB7DEB7898389810E9442140F90CF91C1
:1029F000DF910895DF93CF9300D0CDB7DEB79A83F0
:102A000089830AC0E981FA8180810E94ED1489815D
:102A10009A8101969A838983E981FA81808188234A
:102A200089F70F900F90CF91DF9108950F931F9327
:102A3000DF93CF93CDB7DEB7C956D0400FB6F89429
:102A4000DEBF0FBECDBFFE01EA59FF4F6083718329
:102A500082839383198237C08981082F10E0FE0199
:102A6000EA59FF4F80819181A281B3812AE030E051
:102A700040E050E0BC01CD010E942018DC01CB01F8
:102A8000282FCE010296FC01E00FF11F20838E015A
:102A90000A591F4FFE01EA59FF4F80819181A2819F
:102AA000B3812AE030E040E050E0BC01CD010E945B
:102AB0002018DA01C901F80180839183A283B383CE
:102AC00089818F5F8983FE01EA59FF4F808191815F
:102AD000A281B3810097A105B10509F0BDCF12C055
:102AE0008981882F90E09C0121503040CE010296D0
:102AF000FC01E20FF31F8081805D0E9442148981F6
:102B0000815089838981882359F7C759DF4F0FB6D0
:102B1000F894DEBF0FBECDBFCF91DF911F910F9113
:102B20000895DF93CF9300D0CDB7DEB71A82198214
:102B300019822CC08981882F90E00896880F991FF0
:102B4000880F991F880F991F0E94DE131A8218C0E0
:102B50008981482F50E08A81282F30E0CA01880FF0
:102B6000991F880F991F880F991F820F931FFC01CF
:102B7000E859FF4F80810E94ED148A818F5F8A831C
:102B80008A81883028F389818F5F898389818830A1
:102B900088F20F900F90CF91DF910895DF93CF933C
:102BA000CDB7DEB727970FB6F894DEBF0FBECDBF07
:102BB0009C838B836D834E832F838D81882F90E040
:102BC000880F991F880F991F880F991F8A838A8100
:102BD00080648A838A810E94DE1319820EC08981F3
:102BE000282F30E08B819C81FC01E20FF31F808154
:102BF0000E94421489818F5F89838981883078F3AC
:102C00008E816F810E94CD148D810E94421427967F
:102C10000FB6F894DEBF0FBECDBFCF91DF91089500
:102C2000DF93CF93CDB7DEB781E090E067E070E04F
:102C300041E050E00E94810D80E090E064E070E0AF
:102C400041E050E00E94810D80E090E065E070E09E
:102C500041E050E00E94810D80E090E066E070E08D
:102C600041E050E00E94810DCF91DF910895DF9304
:102C7000CF9300D00F92CDB7DEB789838981282FFB
:102C800030E03B832A838A819B8181309105D9F092
:102C90002A813B81223031052CF48A819B81009767
:102CA00061F022C02A813B812230310591F08A8176
:102CB0009B818330910599F017C081E067E041E086
:102CC0000E94640E11C080E064E041E00E94640E46
:102CD0000BC080E065E041E00E94640E05C080E02A
:102CE00066E041E00E94640E0F900F900F90CF912C
:102CF000DF910895DF93CF9300D00F92CDB7DEB769
:102D000089838981282F30E03B832A838A819B81B4
:102D100081309105D9F02A813B81223031052CF494
:102D20008A819B81009761F022C02A813B812230F9
:102D3000310591F08A819B818330910599F017C00C
:102D400081E067E040E00E94640E11C080E064E032
:102D500040E00E94640E0BC080E065E040E00E940D
:102D6000640E05C080E066E040E00E94640E0F90B3
:102D70000F900F90CF91DF910895DF93CF9300D004
:102D80000F92CDB7DEB789838981282F30E03B834E
:102D90002A838A819B8181309105D1F02A813B81F0
:102DA000223031052CF48A819B81009761F01EC08E
:102DB0002A813B812230310581F08A819B818330D9
:102DC000910581F013C081E067E00E94970F0EC06B
:102DD00080E064E00E94970F09C080E065E00E94F7
:102DE000970F04C080E066E00E94970F0F900F904D
:102DF0000F90CF91DF910895DF93CF93CDB7DEB7DA
:102E00006E970FB6F894DEBF0FBECDBF0E941016AE
:102E100081E090E063E070E041E050E00E94810DCD
:102E20000E94E5081E8E78C08E8D0E944D0980E0BC
:102E300090E0A0EAB0E4898F9A8FAB8FBC8F698D48
:102E40007A8D8B8D9C8D20E030E04AE755E40E941E
:102E50001F02DC01CB018D8B9E8BAF8BB88F6D89F0
:102E60007E898F89988D20E030E040E85FE30E9402
:102E7000250488232CF481E090E09C8B8B8B3FC051
:102E80006D897E898F89988D20E03FEF4FE757E469
:102E90000E94C50318164CF5698D7A8D8B8D9C8D1B
:102EA00020E030E040E251E40E941F02DC01CB014F
:102EB000BC01CD010E944900DC01CB019C8B8B8BB6
:102EC0000FC080E991E09A8B898B89899A89019753
:102ED000F1F79A8B898B8B899C8901979C8B8B8BC3
:102EE0008B899C89009769F714C06D897E898F89C9
:102EF000988D0E944900DC01CB019C8B8B8B8B89C8
:102F00009C89988B8F878F8598890197F1F7988B8B
:102F10008F878E8D8F5F8E8F8E8D8F3F09F084CF40
:102F20008FEF8D8F8D8D0E944D0980E090E0A0EA9B
:102F3000B0E48B879C87AD87BE876B857C858D854C
:102F40009E8520E030E04AE755E40E941F02DC0144
:102F5000CB018F839887A987BA876F817885898508
:102F60009A8520E030E040E85FE30E942504882352
:102F70002CF481E090E09E838D833FC06F81788543
:102F800089859A8520E03FEF4FE757E40E94C5030B
:102F900018164CF56B857C858D859E8520E030E08C
:102FA00040E251E40E941F02DC01CB01BC01CD01D3
:102FB0000E944900DC01CB019E838D830FC080E914
:102FC00091E09C838B838B819C810197F1F79C839B
:102FD0008B838D819E8101979E838D838D819E81C0
:102FE000009769F714C06F81788589859A850E945A
:102FF0004900DC01CB019E838D838D819E819A8364
:10300000898389819A810197F1F79A8389838D8DCC
:1030100081508D8F87CFDF93CF93CDB7DEB780916F
:10302000B6008F5F8093B6008091B600883229F495
:1030300082E00E94BD161092B600CF91DF910895F4
:10304000A1E21A2EAA1BBB1BFD010DC0AA1FBB1FAC
:10305000EE1FFF1FA217B307E407F50720F0A21B1E
:10306000B30BE40BF50B661F771F881F991F1A948B
:1030700069F760957095809590959B01AC01BD01B5
:10308000CF0108952F923F924F925F926F927F925D
:103090008F929F92AF92BF92CF92DF92EF92FF9268
:1030A0000F931F93CF93DF93CDB7DEB7CA1BDB0B14
:1030B0000FB6F894DEBF0FBECDBF09942A883988B9
:1030C00048885F846E847D848C849B84AA84B984C0
:1030D000C884DF80EE80FD800C811B81AA81B981CC
:1030E000CE0FD11D0FB6F894DEBF0FBECDBFED01E0
:0630F0000895F894FFCFE3
:1030F60000000000000000000A1F1F1F1F0E040032
:10310600041F11111111111F041F111111111F1F7D
:10311600041F1111111F1F1F041F11111F1F1F1F35
:10312600041F111F1F1F1F1F041F1F1F1F1F1F1FED
:0831360000000101050515155B
:00000001FF
